:020000040800F2
:10000000E808002049010008FD0C0008D70B000893
:10001000F90C0008C10800080F21000800000000CA
:10002000000000000000000000000000851400082F
:1000300021090008000000006D13000829160008BF
:100040006301000863010008630100086301000800
:1000500063010008630100086301000863010008F0
:1000600063010008630100086301000863010008E0
:1000700063010008630100086301000863010008D0
:1000800063010008630100086301000863010008C0
:1000900063010008630100086301000863010008B0
:1000A00063010008630100086301000863010008A0
:1000B00063010008CD18000863010008630100080F
:1000C0006301000863010008630100086301000880
:1000D00063010008211F0008630100086301000894
:1000E0006301000863010008630100086301000860
:1000F0006301000863010008630100086301000850
:10010000630100086301000863010008630100083F
:10011000630100086301000863010008630100082F
:10012000630100086301000863010008630100081F
:10013000DFF810D000F0B2FB00480047492A000861
:10014000AFF30080E80800200648804706480047D3
:10015000FEE7FEE7FEE7FEE7FEE7FEE7FEE7FEE777
:10016000FEE7FEE72D16000831010008F0B480EA32
:100170000102D40F4200B2EB410F02D20246084600
:1001800011464A0042D0C30DDDB2C1F3C752AD1AC9
:10019000202D35DAC1F3160141F4000204B15242B8
:1001A000C5F1200602FA06F12A411044B3EBD05FF4
:1001B00023D0C4B1012DA0EBC35009DCF0BC4FF03B
:1001C000004202EAC352DBB200F5000000F0C3BAFD
:1001D000400000F1807000EBC350A0F1807040EA55
:1001E000D170490009E0490841EAC071A0EBC35051
:1001F00000F50000400800EBC350F0BC00F0A2BACC
:100200006142012202EB4101001BF6E7F0BC70479E
:1002100081F00041AAE780F00040A7E780EA0102F0
:1002200010B502F00043400022D04A001FD0010E5A
:1002300001EB1261C0F35600C2F3560240F4000015
:1002400042F40002A0FB022000047F39140400D015
:10025000401C50EA124001D44000491EC2B20C06B4
:1002600004EBD010401C4008802A02D003E000209C
:1002700010BD20F00100002900DA0020184310BD55
:100280002DE9FE4F804681EA0300C00F0C46009026
:1002900021F0004123F00045B8EB0200A94105D24E
:1002A0004046214690461C460B46024623F000403D
:1002B000104347D0270DC7F30A00C3F30A51029039
:1002C000401A019040286BDAC3F3130040F4801BFE
:1002D0000098924620B10023D2EB030A63EB0B0B8C
:1002E00001985946C0F14002504600F0FAF906461E
:1002F0000D4650465946019A00F012FA10EB0800DC
:100300006141002487EA115284EAE7731A4340D01E
:10031000009A62B3019A012A4FEA075215DC001BCA
:1003200061EB02014FF0004202EA0752CDE90042C0
:10033000001C41F5801132462B4600F049FA03B00B
:10034000BDE8F08F40462146F9E7001B61EB020152
:10035000001C41F5801300185B412018A2F500171E
:1003600047EB030140EAD570B6196D4111E06D0805
:100370004FEA360645EAC0754FEA0752001B61EBAB
:100380000201001C41F5801149084FEA30000019B4
:10039000514132462B4603B0BDE8F04F00F009BA98
:1003A0000098012240000023D0EB020263EBE073CF
:1003B000009821464FEAE074B8EB000061EB0401BD
:1003C000E9E783F000435BE781F0004158E72DE95E
:1003D000FE4F81EA030404F0004421F00041009440
:1003E0004FF0000B23F0004350EA01045ED052EAC4
:1003F00003045BD0C3F30A54C1F30A552C44A4F29E
:10040000F3340194A0FB0254C1F3130141F48011B1
:10041000C3F3130343F4801301FB024400FB034EB8
:10042000840A970A44EA815447EA8357A4FB076881
:1004300002958D0A05FB07854FEA932C04FB0C54AB
:100440002705029D4FEA065847EA1637B5EB08051F
:100450006EEB070C870E920E47EA811742EA831271
:10046000A7FB0201B6EB0B0164EB00042B0D43EA82
:100470000C335E1844EB1C50DA465146E7FB020190
:10048000C5F313044FEA0B3343EA14534FEA043223
:10049000019C43EA0603A4F10C040294009CCDE9FC
:1004A00000B400F095F903B0BDE8F08F00200146DC
:1004B000F9E72DE9F04D81EA030404F0004B21F047
:1004C000004514464FF0000A23F0004150EA0502AF
:1004D00020D054EA01021DD0C5F30A570246C5F3E5
:1004E0001303C1F31300C1F30A5640F4801543F41B
:1004F0008013A7EB0608101BD64608F2FD3873EBF5
:10050000050002D308F1010801E092185B41B8F13F
:10051000000F03DA00200146BDE8F08D00204FF403
:100520008011064684460EE0171B73EB050705D3C2
:10053000121B63EB050306434CEA010C49084FEA22
:10054000300092185B4150EA0107EDD152EA0300F6
:1005500012D082EA040083EA0501084305D0101B8B
:10056000AB4106D20122002306E000224FF00043F7
:1005700002E06FF0010253101AEB06004CEB085139
:1005800010EB0A0041EB0B01BDE8F04D00F011B992
:10059000C10F80EAE0700844CA079623002100F0EA
:1005A000DAB896230022114600F0D5B820F00040BA
:1005B000C10DC0F3160040F400007F2901DA0020CD
:1005C0007047962903DCC1F19601C84070479639FF
:1005D0008840704700F0004230F000400AD0C10D62
:1005E00001F56071C0F3160042EA0151C2084007EC
:1005F00011437047002001467047000030B5041ECB
:1006000071F1000404DB4FF00044404264EB01014F
:10061000141E73F1000405DB1C464FF000435242E8
:1006200063EB0403994208BF904230BD002801DB10
:10063000C0F10040002901DBC1F100418142704757
:10064000002801DBC0F10040002901DBC1F10041BD
:100650008842704730B50B46014600202022012415
:1006600009E021FA02F59D4205D303FA02F5491B80
:1006700004FA02F52844151EA2F10102F1DC30BD96
:100680002DE9F05F0546002092469B4688460646C7
:10069000814640241BE0284641464746224600F05A
:1006A0002FF853465A46C01A914110D311461846A6
:1006B000224600F016F82D1A67EB01084F46224635
:1006C0000120002100F00DF817EB00094E41201E1B
:1006D000A4F10104DFDC484631462A464346BDE822
:1006E000F09F202A04DB203A00FA02F10020704734
:1006F0009140C2F1200320FA03F319439040704760
:10070000202A04DB203A21FA02F00021704721FA66
:1007100002F3D040C2F120029140084319467047CD
:10072000202A06DBCB17203A41FA02F043EAE073B5
:1007300006E041FA02F3D040C2F1200291400843A2
:10074000194670470029A8BF7047401C490008BFE0
:1007500020F00100704710B4B0FA80FC00FA0CF0F1
:1007600050EA010404BF10BC704749B1CCF1200429
:1007700021FA04F411FA0CF118BF012121430843B6
:10078000A3EB0C01CB1D4FEA00614FEA102042BFE2
:10079000002010BC704700EBC35010440029A4BFD8
:1007A00010BC7047401C490008BF20F0010010BC7D
:1007B000704710B5141E73F1000408DA401C41F1B3
:1007C000000192185B411A4301D120F0010010BDD5
:1007D0002DE9F04D92469B4611B1B1FA81F202E04B
:1007E000B0FA80F220329046FFF77BFF04460F46B6
:1007F00040EA0A0041EA0B0153465A46084313D027
:10080000114653EA010019D0C8F140025046FFF7E3
:1008100077FF05460E46504659464246FFF761FFB0
:10082000084305D0012004E020463946BDE8F08D9C
:100830000020054346EAE0762C4337430A986305D7
:10084000E40AA0EB08000022FD0A44EA47540A30FB
:1008500002D500200146E9E7010510196941DDE9EB
:10086000084500196941BDE8F04DA2E7C1F30A52FD
:10087000C1F3130140F2FF3341F480119A4202DACE
:1008800000200146704740F233439A42A2F23342BD
:1008900002DC5242FFF734BFFFF723BF064C074D7F
:1008A00006E0E06840F0010394E807009847103440
:1008B000AC42F6D3FFF740FCA0370008C037000871
:1008C00000BFFEE710B54FF48051024800F07CF9FC
:1008D00010BD00000010014010B54FF480510248D7
:1008E00000F070F910BD00000010014008B50121B2
:1008F000102000F04DFD10208DF803000002ADF82F
:10090000000003208DF802006946044800F0C6F894
:100910004FF48051014800F057F908BD0010014024
:100920007047000010B5054801F00DF904B2002130
:10093000024801F037FA204610BD000000340140A3
:1009400010B5054801F0FFF804B20021024801F09B
:1009500029FA204610BD0000002C014000B587B0E8
:100960000121480300F014FD0121102000F010FDCA
:1009700048208DF81B00C020ADF8180003208DF82A
:100980001A0006A91B4800F089F80020ADF81200F3
:10099000ADF80E004FF6FF70ADF810000020ADF876
:1009A0000C008DF8140003A9134801F029FA6846D9
:1009B00001F034F90020ADF800000F20ADF8080078
:1009C00069460D4801F0D4F80420ADF800000F206E
:1009D000ADF808006946084801F0CAF80223002271
:1009E0000321054801F08EF80121034801F07EF84B
:1009F00007B000BD001001400034014000B587B0D1
:100A00000121C80200F0C4FC0121042000F0C0FC58
:100A100048208DF81B004001ADF8180003208DF828
:100A20001A0006A91B4800F039F80020ADF81200A2
:100A3000ADF80E004FF6FF70ADF810000020ADF8D5
:100A40000C008DF8140003A9134801F0D9F9684689
:100A500001F0E4F80020ADF800000F20ADF8080028
:100A600069460D4801F084F80C20ADF800000F2015
:100A7000ADF808006946084801F07AF80223002220
:100A80000321054801F03EF80121034801F02EF84A
:100A900007B000BD00080140002C01402DE9F041E5
:100AA000024600250026002000230024002791F89C
:100AB00003C00CF00F0591F803C00CF0100CBCF152
:100AC000000F03D091F802C04CEA050591F800C070
:100AD000BCF1000F31D0146800202BE04FF0010C66
:100AE0000CFA00F3B1F800C00CEA03069E4220D1D4
:100AF00083004FF00F0C0CFA03F7BC4305FA03FC1C
:100B00004CEA040491F803C0BCF1280F06D14FF061
:100B1000010C0CFA00FCC2F814C00AE091F803C002
:100B2000BCF1480F05D14FF0010C0CFA00FCC2F8E3
:100B300010C0401C0828D1D31460B1F800C0BCF12B
:100B4000FF0F34DD546800202EE000F1080C4FF058
:100B5000010808FA0CF3B1F800C00CEA03069E4243
:100B600021D183004FF00F0C0CFA03F7BC4305FAB8
:100B700003FC4CEA040491F803C0BCF1280F05D132
:100B800000F1080C08FA0CF8C2F8148091F803C0C0
:100B9000BCF1480F07D100F1080C4FF0010808FA2A
:100BA0000CF8C2F81080401C0828CED35460BDE871
:100BB000F0810246002093680B400BB1012000E059
:100BC0000020704741617047016170470AB10161BF
:100BD00000E04161704700BFFEE700000548007873
:100BE00030B1044801780020024A1070084670476E
:100BF0000020FCE71400002010B54FF4806113487A
:100C0000FFF7D7FF08B9012010BD4FF400610F486E
:100C1000FFF7CFFF08B90220F6E74FF480510B48E9
:100C2000FFF7C7FF08B90320EEE702210748FFF7E7
:100C3000C0FF08B90420E7E74FF400510348FFF76D
:100C4000B8FF08B90520DFE70020DDE7001001400C
:100C500008B50121102000F09BFB48208DF803000F
:100C600043F60240ADF8000003208DF8020069460B
:100C70000148FFF713FF08BD0010014010B50F48F1
:100C80000078401C0D49087008460078282813DBBE
:100C9000002008700A4800780A490870FFF7ACFF86
:100CA000074908700846007830B90648007818B13E
:100CB000044800780449087010BD000015000020A9
:100CC00016000020170000201400002008B50121A4
:100CD000042000F05DFB10208DF803005020ADF8DB
:100CE000000003208DF8020069460248FFF7D6FE97
:100CF00008BD00000008014000BFFEE7704700008B
:100D000070B5002100230F22C47804B3154C246869
:100D100004F4E064C4F5E064210AC1F10403CA40AC
:100D2000447804FA03F184781440214309010E4CFD
:100D30000678A155047804F01F050124AC4005781D
:100D40006D11AD0005F1E025C5F8004109E004781A
:100D500004F01F050124AC40044D0678761145F8D7
:100D6000264070BD0CED00E000E400E080E100E012
:100D700002490143024A1160704700000000FA0571
:100D80000CED00E000200CE0002106E00022064B04
:100D900003EBC0135A544A1CD1B28029F6DB421C23
:100DA000D0B20828F0DB7047E80000202DE9F043BE
:100DB00004460D4616461F46284638E0224631E0D6
:100DC000002A2DDB7F2A2BDC002829DB3F2827DCAB
:100DD0004FEAE07C00EB5C7C4FEAEC0CDFF85880DB
:100DE00008EBCC1C1CF802C003464FEAE07800EB8D
:100DF00058784FEAE808A0EBC8094FF0010808FA54
:100E000009F82CEA080C01464FEAE07800EB587824
:100E10004FEAE808DFF8209009EBC81808F802C08C
:100E2000511C0AB2A1199142CADC411C08B2E9194D
:100E30008142C3DCBDE8F083E800002038B500241F
:100E400006E0002500E06D1CB5F57A7FFBD3641C3D
:100E5000B4F57A7FF5D30121082000F099FA142027
:100E60008DF8030003208DF802004FF48070ADF878
:100E7000000069460848FFF711FE4FF40070ADF816
:100E8000000069460448FFF709FE012000F08AF9D6
:100E9000012000F093F938BD000C014070B5054603
:100EA000002411E080212141294009B1012100E005
:100EB0000021084600F082F9012000F073F90020BB
:100EC00000F070F9601CC4B2082CEBDB012000F0CC
:100ED00069F9002000F066F970BD10B5012000F03E
:100EE0006DF9012000F05EF9002000F067F90020A4
:100EF00000F058F910BD10B5002000F05FF9012096
:100F000000F050F9012000F059F910BD10B5FFF7BD
:100F100095FFAE2000F05EF9D52000F05BF980204F
:100F200000F058F9A82000F055F93F2000F052F9E0
:100F3000D32000F04FF9002000F04CF9402000F0E1
:100F400049F9A12000F046F9C82000F043F9DA2061
:100F500000F040F9122000F03DF9812000F03AF94C
:100F6000CF2000F037F9D92000F034F9F12000F05B
:100F700031F9DB2000F02EF9302000F02BF9A4200D
:100F800000F028F9A62000F025F98D2000F022F9C4
:100F9000142000F01FF9AF2000F01CF9FFF7F2FE5B
:100FA00000F0ECF810BD0FB470B5C2B005460E46A7
:100FB00014464AA8019002A8019A499901F0AAF89A
:100FC00000200190234602AA3146284600F0BEF8D0
:100FD00042B070BC5DF814FB70B505460C4645F098
:100FE000B00000F0F7F8102141EA141000F0F2F818
:100FF00004F00F0000F0EEF870BD0000F8B50646F2
:101000000F4614461D46082D0CD1A4F120000E49B0
:1010100001EB00101023082239460090304600F002
:1010200017F80FE0062D0DD1A4F1200000EB4000D1
:10103000064901EB4000082306223946009030465D
:1010400000F006F8F8BD0000602E000850340008DB
:101050002DE9FF4F80460E469146DDF834B000255D
:1010600000244A4631464046039BFFF79FFE00BFDF
:101070005EE0002558E008EB0500002852DB08EB95
:1010800005007F284EDC3046F11706EB5171C91080
:101090000FB2F11706EB5171C910A6EBC10A002E71
:1010A00005DA781E07B20AF108000FFA80FA38193B
:1010B000002817DB3819072814DC3819224901EBFE
:1010C000C01008EB0501405C04FB09511BF801103E
:1010D00001FA0AF1084339191B4A02EBC11108EB66
:1010E000050288543819401C00281BDB3819401CA5
:1010F000072817DC3819401C134901EBC01008EB16
:101100000501405C04FB09511BF80110CAF10802FB
:10111000114108433919491C0B4A02EBC11108EB74
:1011200005028854681CC5B24D45A4DB601CC4B2DE
:101130000399481EC11700EB5171012202EBE10136
:10114000A14296DCBDE8FF8FE80000202DE9F041C8
:101150000646884615461F46002409E02A5D04FB22
:10116000076108B23B464146FFF748FF601CC4B226
:10117000285D0028F2D1BDE8F081000010B5002400
:101180000BE000212046FFF727FF054901EBC410C3
:10119000802100F02FF8601CC4B2082CF1DB10BDD8
:1011A000E800002010B5044622464FF48071024842
:1011B000FFF70CFD10BD0000000C014010B5044607
:1011C00022464FF400710248FFF700FD10BD0000F9
:1011D000000C014010B50446FFF77FFE7820FFF7B2
:1011E0005DFE0020FFF75AFE2046FFF757FEFFF78F
:1011F00082FE10BD70B505460E46FFF76EFE7820E4
:10120000FFF74CFE4020FFF749FE002404E0285D74
:10121000FFF744FE601CC4B2B442F8DBFFF76BFE7C
:1012200070BD2DE9F0410446A069E061D4E90001F8
:10123000FEF7EEFFA06100212069FFF7F7F905D066
:10124000A169206AFEF792FF206201E0002020627F
:10125000D4E90601FEF7DCFF07466169FEF7DEFF11
:101260000546216A2069FEF7D9FF0746A169E068B3
:10127000FEF7D4FF80463946FEF778FF064629463A
:10128000FEF774FFA060616AA068FFF7D9F901D288
:10129000606AA060A16AA068FFF7C8F901D2A06ADD
:1012A000A060BDE8F081000000B589B001210420F4
:1012B00000F05EF80121082000F06AF818208DF88F
:1012C0002300C020ADF8200003208DF8220008A9DB
:1012D0001A48FFF7E3FB1A4800F0B2FC0020ADF813
:1012E0001A00ADF816006320ADF8180040F2CF20C8
:1012F000ADF8140000208DF81C0005A9104800F07E
:101300007FFD01A800F040FD6020ADF80400002042
:10131000ADF80C000120ADF806000020ADF80A0081
:1013200001A9074800F092FC01A9054800F0DAFC89
:101330000121034800F0DAFB09B000BD000C0140B8
:101340000008004010B504462146024800F026FD82
:1013500010BD00000008004010B5044621460248B8
:1013600000F01EFD10BD00000008004070470000A6
:1013700029B1064AD2690243044BDA6104E0034A08
:10138000D2698243014BDA617047000000100240CD
:1013900029B1064A92690243044B9A6104E0034A68
:1013A00092698243014B9A6170470000001002402D
:1013B00030B500210022002400232D4D6D6805F07A
:1013C0000C0121B1042905D0082923D105E0294DBC
:1013D000056022E0274D05601FE0254D6D6805F48E
:1013E0007012234D6D6805F48034022505EB92429E
:1013F0001CB9214D554305600BE01D4D6D6805F48A
:1014000000351DB11C4D5543056002E0194D554393
:10141000056002E0174D056000BF00BF144D6D6808
:1014200005F0F0010909154D6B5C0568DD4045606C
:101430000F4D6D6805F4E061090A104D6B5C45685D
:10144000DD4085600A4D6D6805F46051C90A0B4D99
:101450006B5C4568DD40C560054D6D6805F4404135
:10146000890B074D6B5CC568B5FBF3F5056130BDB5
:101470000010024000127A0000093D000000002028
:10148000100000207047000000B587B001218803DC
:10149000FFF77EFF01210420FFF77AFF18208DF867
:1014A0001B004FF40070ADF8180003208DF81A00EF
:1014B00006A92148FFF7F2FA48208DF81B004FF4E7
:1014C0008060ADF8180003208DF81A0006A91A48AC
:1014D000FFF7E4FA4FF4E13002900020ADF8140079
:1014E0000C20ADF812000020ADF81000ADF80E0091
:1014F000ADF80C0002A9114800F098FD012240F25D
:1015000025510E4800F06DFD4FF4A060FFF730FC50
:1015100025208DF8040001208DF807008DF80500C6
:101520008DF8060001A8FFF7EBFB0121034800F04E
:1015300022FD07B000BD0000000801400038014056
:1015400010B500F001F810BD0CB50020019000901E
:101550003348006840F480303149086000BF3048AB
:10156000006800F4003000900198401C0190009841
:1015700018B90198B0F5A06FF1D12948006800F4BE
:10158000003010B10120009001E000200090009890
:10159000012843D12348006840F010002149086029
:1015A0000846006820F0030008600846006840F024
:1015B000020008601A4840681949486008464068B7
:1015C00048600846406840F48060486008464068CB
:1015D00020F47C1048600846406840F4E8104860F9
:1015E0000846006840F08070086000BF0C48006842
:1015F00000F000700028F9D00948406820F003008E
:10160000074948600846406840F00200486000BF53
:101610000348406800F00C000828F9D10CBD000018
:1016200000100240002002407047000010B513482F
:10163000006840F001001149086008464068104900
:1016400008400E494860084600680E4908400B49AA
:1016500008600846006820F480200860084640685A
:1016600020F4FE0048604FF41F008860FFF768FF19
:101670004FF000600449086010BD000000100240F7
:101680000000FFF8FFFFF6FE08ED00E0F0B50C46A5
:10169000154600220021068C4FF6FE773E40068458
:1016A000028B018C4FF60C7632407E1C06EA031644
:1016B0002E433243104EB0420ED0104EB0420BD0EB
:1016C000B0F1804F08D00E4EB04205D00D4EB04262
:1016D00002D00D4EB04206D14FF6FD76314044F0B7
:1016E0000106314305E04FF6F576314044F001063E
:1016F000314302830184F0BD002C014000340140DD
:101700000004004000080040000C0040F0B50C460A
:101710001546002200210026078C4FF6EF7C07EAD1
:101720000C070784028B018C4FF6FF7707EA04163B
:1017300040F6FF473A404FF6FF7707EA03373A4350
:101740004FF6FF7707EA05273A43114FB8420ED00C
:10175000104FB8420BD0B0F1804F08D00E4FB842B6
:1017600005D00E4FB84202D00D4FB84206D14FF609
:10177000DF77394046F01007394305E04FF65F77D1
:10178000394044F01007394302830184F0BD000062
:10179000002C0140003401400004004000080040DB
:1017A000000C0040F0B50C46154600220021002632
:1017B000078C4FF6FF6C07EA0C070784828B018CBD
:1017C0004FF6FF7707EA04264FF60C773A404FF6BC
:1017D000FF7707EA03172F433A43114FB8420ED061
:1017E000104FB8420BD0B0F1804F08D00E4FB84226
:1017F00005D00E4FB84202D00D4FB84206D14FF679
:10180000FF57394046F48077394305E04FF2FF57E0
:10181000394044F48077394382830184F0BD00006D
:10182000002C01400034014000040040000800404A
:10183000000C0040F0B50C461546002200210026A1
:10184000078C4EF6FF7C07EA0C070784828B018C1D
:101850004FF6FF7707EA043640F6FF473A404FF667
:10186000FF7707EA05273A434FF6FF7707EA033782
:101870003A43114FB8420ED0104FB8420BD0B0F1DE
:10188000804F08D00E4FB84205D00E4FB84202D05C
:101890000D4FB84206D14DF6FF77394046F48057D8
:1018A000394305E047F6FF57394044F48057394340
:1018B00082830184F0BD0000002C0140003401400F
:1018C0000004004000080040000C004070B50121F9
:1018D000724800F03BF901287DD1FFF7CFF970483D
:1018E0000088401C6E4908806E480088401C6D4985
:1018F00008806D480088401C6B4908806848008853
:10190000282869DB00206649088068480078D0B143
:10191000FFF708F80546FEF73BFE044664484168B9
:101920002046FEF723FC62494860FFF709F80546A8
:10193000FEF72EFE04465F4841682046FEF716FC7F
:101940005C4948600DE0FEF7EDFF0446FEF720FE1F
:1019500057494860FEF7F4FF0446FEF719FE554963
:1019600048605548007830B9544948685449FEF7F2
:10197000FDFB524948605048407830B94F494868AB
:101980005049FEF7F3FB4D4948604B48807838B921
:101990004A4948684FF04041FEF7E8FB4749486034
:1019A0004548C07830B9454948684749FEF7DEFBED
:1019B000424948604048007938B9404948684FF08A
:1019C0007E51FEF7D3FB3D4948603B48407950B912
:1019D0003A49486801E05FE036E04FF08041FEF7A9
:1019E000C5FB364948603448807930B93349486886
:1019F0003649FEF7BBFB314948602F48C07938B9FA
:101A00002E4948684FF08141FEF7B0FB2B494860F2
:101A10002A48FFF706FC2648FFF703FC2548FFF796
:101A200000FC2B48FFF7FDFB21498868FEF7BEFD4F
:101A300084B22046FFF786FC1E498868FEF7B6FD93
:101A400084B22046FFF788FC164800880A2809DB84
:101A5000002014490880202210211E4800F0D0FFE9
:101A60001D4908701D48007890B10F480088401C3F
:101A70000D490880FEF730FF0B480088B0F5FA7F6B
:101A800006DB00200849088014490870FEF71AFF99
:101A90000121024800F027F870BD0000000400405A
:101AA000E0000020E2000020E400002021000020EF
:101AB000300000205C00002028000020880000206A
:101AC000000080C0000040C0000080BF0000404017
:101AD000B4000020001001401D0000201E00002066
:101AE000CA4302827047CA430282704721B102880A
:101AF00042F00102028004E002884FF6FE731A40B1
:101B000002807047F0B50C4615461E4600210022A3
:101B100000230189028B038C4FF6F877394021436B
:101B20004FF6FC473A4040F201173A434FF6DD7753
:101B30003B404FF6FF7707EA06172F433B430181EF
:101B400002830384F0BD0146888C704730B502469D
:101B5000002000230024158A05EA0103958905EA7F
:101B6000010413B10CB1012000E0002030BD0000E1
:101B700070B505460C46244885420ED02348854260
:101B80000BD0B5F1804F08D02148854205D02148BF
:101B9000854202D02048854200D100E000BF208865
:101BA00050B92389A28861882846FFF76FFDE18834
:101BB000284600F0F9F825E0208804280AD1238976
:101BC000A28861882846FFF7A1FDE188284600F039
:101BD000F4F817E0208808280AD12389A2886188B0
:101BE0002846FFF7DFFDE188284600F0F3F809E01A
:101BF0002389A28861882846FFF71CFEE1882846D1
:101C000000F0F1F870BD0000002C014000340140EC
:101C10000004004000080040000C0040002101804A
:101C20004180012181800021C180018170471AB16A
:101C300083890B43838102E083898B4383817047CF
:101C400001894FF6F87211400181704770B5002488
:101C500000220023058C4FF6FE7635400584028C69
:101C60008388048B4FF68F752C40B51E2C400D8851
:101C70002C43751E2A400D892A434D882A43144D52
:101C8000A8420BD0134DA84208D0134DA84205D04E
:101C9000124DA84202D0124DA84213D14FF6F7754B
:101CA0002A404D892A434FF6FB752A408D882A43E6
:101CB0004FF6FF652B404FF6FF552B408D892B4388
:101CC000CD892B4383800483CD888586028470BDB3
:101CD000002C01400034014000400140004401401C
:101CE0000048014070B5002400220023058C4FF607
:101CF000EF7635400584028C8388048B48F6FF75A7
:101D00002C404FF6FF452C400D884FF6FF7606EA33
:101D100005252C434FF6DF752A400D8906EA051587
:101D20002A434D8806EA05152A43154DA84202D0DC
:101D3000144DA8421DD14FF67F752A404D894FF6AC
:101D4000FF7606EA05152A434FF6BF752A408D88AF
:101D500006EA05152A434FF6FF352B404FF2FF7573
:101D60002B408D8906EA85052B43CD8906EA85053A
:101D70002B4383800483CD880587028470BD0000D7
:101D8000002C01400034014000210180418081800D
:101D9000C180018141818181C18170478186704705
:101DA0000187704781847047028B4FF6F3731A40A6
:101DB0000283028B0A4302837047028B4FF2FF3388
:101DC0001A400283028B4FF6FF7303EA01231A4382
:101DD00002837047828B4FF6F3731A408283828BA3
:101DE0000A4382837047828B4FF2FF331A4082830B
:101DF000828B4FF6FF7303EA01231A4382837047F5
:101E0000002202881D4B98420ED01D4B98420BD0E9
:101E1000B0F1804F08D01B4B984205D01A4B984226
:101E200002D01A4B984204D14FF68F731A404B8858
:101E30001A43174B984207D0164B984204D04FF6DE
:101E4000FF431A40CB881A4302808B8883850B8816
:101E500003850A4B98420BD0094B984208D00E4B91
:101E6000984205D00D4B984202D00D4B984201D1BB
:101E70000B7A03860123838270470000002C014007
:101E8000003401400004004000080040000C004005
:101E90000010004000140040004001400044014098
:101EA000004801401FB501210220FFF761FA1B48DD
:101EB000FFF7C6FE0020ADF80A00ADF8060040F2BC
:101EC000E730ADF808004720ADF8040000208DF899
:101ED0000C0001A91148FFF793FF01210F48FFF7FC
:101EE000FFFD012211460D48FFF7A1FE4FF4A0604F
:101EF000FEF73EFF1D208DF8000001208DF8030045
:101F000002208DF8010001208DF802006846FEF7DE
:101F1000F7FE01210148FFF7E9FD1FBD0004004065
:101F200010B540F22551094800F031F801280CD1D4
:101F3000064800F0E7F806490870012005490870D6
:101F400040F22551014800F007F810BD003801406B
:101F5000180000201900002010B50022002340F6D0
:101F60006A14A14200D100BF0A1201249440A3B216
:101F7000DC43048010BD21B1828942F40052828189
:101F800004E082894DF6FF731A408281704770B574
:101F90000246002400230025002040F66A16B142C4
:101FA00000D100BFC1F3421501F01F03012606FA5C
:101FB00003F3012D02D19689334006E0022D02D1B0
:101FC000168A334001E0968A33400C12012606FA45
:101FD00004F41688344013B10CB1012000E0002055
:101FE00070BDF0B50346002400260025002040F611
:101FF0006A17B94200D100BF1846C1F3421401F07C
:102000001F06012707FA06F5012C01D10C3004E068
:10201000022C01D1103000E014301AB107682F43B0
:10202000076002E00768AF430760F0BD2DE9F047A5
:1020300086B005460E460024A24600BFA1460027F2
:10204000B08900B100BF2F462C8A4CF6FF700440C7
:10205000F08804432C82AC894EF6F3100440B0881B
:1020600031890843718908430443AC81AC8A4FF637
:10207000FF400440B0890443AC8201A8FFF798F9FF
:102080001F48874202D1DDF810A001E0DDF80CA066
:10209000A88900F4004040B10AEBCA0000EB0A1026
:1020A00031684900B0FBF1F807E00AEBCA0000EB29
:1020B0000A1031688900B0FBF1F86420B8FBF0F039
:1020C00004012009642101FB1089A88900F4004063
:1020D00040B1322000EBC900B0FBF1F000F0070086
:1020E000044308E0322000EB09106421B0FBF1F05A
:1020F00000F00F0004432C8106B0BDE8F08700001B
:102100000038014001468888C0F30800704700BFCE
:10211000FEE7000037B514460846064B6A462146DE
:1021200000F0DCF804466946002000F05AFC204626
:102130003EBD0000E329000802E008C8121F08C1E4
:10214000002AFAD170477047002001E001C1121F38
:10215000002AFBD1704700002DE9FF5F82B000210B
:10216000DDE90430020DDDF840B0034318D044F639
:102170001050A2F2FF3242431514119801281FD0CB
:10218000A5EB0B00401C5FEA000A4FF000064E4F23
:10219000DFF83891B046504615D5CAF1000413E077
:1021A000119801244AA3012801D16FEA0B0102987A
:1021B000119AC0E90031C0E9024206B0BDE8F09FC3
:1021C000CBF10000DFE704460021404A491842EB0A
:1021D0000450CDE9001012E0E00707D032463B463C
:1021E00040464946FEF7F3F88046894632463B466C
:1021F00010461946FEF7EBF806460F466410002C11
:10220000EAD1DDE90401DDE90023BAF1000F06DAC5
:10221000FEF7DDF842464B46FEF7D9F805E0FEF73B
:1022200048F942464B46FEF744F904460E46002262
:10223000284BFEF7E3F903D84FF0FF30014607E0E3
:102240000022254B20463146FEF71AF8FEF70EFB1A
:10225000102409E0002C0ADB0A220023FEF710FA02
:10226000039B30321A55641E50EA0102F2D1641CFD
:10227000039AC4F111031444119A012A03D00122D4
:1022800008430DD10AE0084304D000204FF0110BA1
:10229000119072E7A3EB0B056D1E0DE05B4504DDAD
:1022A0004FF0000205F1010504E003DA4FF00002EF
:1022B000A5F10105002AECD002981199C0E902317C
:1022C000C0E9004579E70000000014400000F03F3D
:1022D000300000000000F0430000E03F2DE9FF4F18
:1022E00095B09A46884606460025EEE1252877D126
:1022F00000242746F94A0121039400E0044316F81C
:10230000013F203B01FA03F01042F7D130782A2830
:1023100011D06FF02F033078A0F13002092A16D8BF
:10232000039A44F0020402EB820203EB42021044DF
:10233000761C0390EFE758F8042B0392002A03DA87
:10234000504244F40054039044F00204761C307868
:102350002E2816D116F8010F44F004042A280DD0B7
:102360006FF02F023078A0F13003092B09D807EB6A
:10237000870302EB4303C718761CF3E758F8047B86
:10238000761C30786C280FD006DC4C2817D06828D3
:102390000DD06A2814D104E0742810D07A280FD107
:1023A0000DE044F400140AE044F4801401E044F425
:1023B00040147278824202D104F58014761C761C97
:1023C000307866280BD013DC582877D009DC002839
:1023D00075D04528F6D04628F4D047281AD193E185
:1023E00018E0632835D0642879D0652812D18BE1B4
:1023F000702873D008DC6728F1D069286FD06E2868
:102400000DD06F2806D1ACE073282CD0752874D07D
:10241000782853D05246179990476D1C54E1C4F365
:102420000250022809D003280DD0D8F80010042843
:102430000DD00D6008F1040846E1D8F80010EA1745
:10244000C1E90052F6E7D8F800100D80F2E70D70F0
:10245000F0E718F8041B8DF8001000208DF801003B
:10246000EB46012003E058F804BB4FF0FF30610752
:102470004FF0000102D40DE009F101018946B94293
:102480000FDA8145F8DB1BF809100029F4D108E0C8
:1024900009F1010189468142FADB1BF80910002984
:1024A000F6D103985346A0EB090721463846179A00
:1024B00000F080FA284400EB090507E044E008E159
:1024C0000DE01BF8010B524617999047B9F101092D
:1024D000F7D2534621463846179AF2E039E00A21EE
:1024E000C4F302524FF0000B0091022A06D058F8B4
:1024F000040BC117032A09D00AE023E008F1070002
:1025000020F00702F2E80201904605E000B2C11790
:10251000042A01D140B2C117002906DA0A46002177
:10252000404261EB02012D2202E0220504D52B225C
:102530008DF80420012203E0E20701D02022F7E712
:10254000914657E00A2100E010214FF0000B009166
:102550000BE010214FF0000B44F004040827009119
:1025600003E008204FF0000B0090C4F30252022A4F
:1025700005D058F8040B0021032A08D008E008F120
:10258000070020F00702F2E80201904603E080B263
:10259000042A00D1C0B24FF0000922072AD53278B0
:1025A000702A07D0DDF800C08CF0100C5CEA0B0C30
:1025B00005D00EE040228DF80420012208E050EA08
:1025C000010306D030238DF804308DF80520022257
:1025D0009146009B83F0080353EA0B030AD150EAAB
:1025E000010201D1620705D530228DF804204FF099
:1025F00001097F1E3278582A04D039A20C920CAA05
:1026000002920BE03BA2F9E75B46009AFEF738F82E
:102610000C9B9B5C029A521E0292137050EA0102BC
:10262000F2D1029804A9081A00F1200B600702D524
:1026300024F4803400E001275F4502DDA7EB0B00A6
:1026400000E0002000EB0B01009003984944401A81
:102650000390E00306D453462146179A039800F0EE
:10266000A9F90544002706E001A85246C05D179964
:1026700090476D1C7F1C4F45F6DBE0030CD553469D
:102680002146179A039800F095F9054404E030209C
:102690005246179990476D1C0099481E00900029DA
:1026A000F5DC08E00298029952460078491C029134
:1026B000179990476D1CBBF10001ABF1010BF1DCE8
:1026C0005BE100F065F90544761C307800287FF462
:1026D0000DAE19B02846BDE8F08F000009280100B2
:1026E0003031323334353637383961626364656688
:1026F000000000003031323334353637383941424A
:102700004344454600000000600700D4062708F156
:10271000070020F00700F0E80223804603F0004C99
:102720005FEA0C0001D097A009E0200501D596A032
:1027300005E0E00701D095A001E0AFF24C00139056
:10274000307823F0004365280CD006DC452809D0FA
:1027500046281DD047287FD13BE0662818D067283F
:102760007AD136E00021112F01DB112000E0781C26
:10277000CDE9000104A90CA8FFF7EEFCDDE90D018D
:102780000C9A4FF0000B07F10109109200914EE0F6
:102790004FF000400097CDE9011004A90CA8FFF705
:1027A000DBFCDDE90D020C9B0F994FF0000B91460D
:1027B0001093009211B9791C00EB0109B7EB0900E5
:1027C00003D4C0F1FF3B07F10109A9EB0700019019
:1027D00042E0012F00DA01270021112F01DD112035
:1027E00000E03846CDE9000104A90CA8FFF7B4FCCD
:1027F000DDE90D010C9A00914FF0000BB9461092E3
:1028000021070FD4009A4A4503DA914601E0A9F165
:102810000109B9F1010F05DD109AA9F10101515C1F
:102820003029F4D0B84202DA10F1040F03DA0121A2
:10283000CDE9011010E0002803DC8344A9EB00017E
:1028400002E0411C494500DD8946A0EB0B00401C1D
:1028500001904FF000400290200705D401984845B0
:1028600002DB4FF0FF30019000208DF84B00029802
:102870000DF14B07B0F1004F25D002200C902B201A
:102880000D90029800280CDA404202902D200D9005
:1028900007E00A210298FDF7DDFE3031029007F8CB
:1028A000011D0C99481E0C900029F2DC02980028AA
:1028B000EFD1791E0D980870307800F0200040F0BC
:1028C000450007F8020D11A8C01BC01D0290139807
:1028D000007800B1012000EB0901019801EBE071E3
:1028E000029801440398401A401E0390E00306D466
:1028F00053462146179A039800F05CF80544139854
:10290000007818B15246179990476D1CE00323D503
:1029100053462146179A039800F04CF805441BE0F3
:10292000BBF1000F07DB0098584504DD109817999C
:1029300010F80B0001E0179930205246904701989B
:102940000BF1010B401E05F10105019004D12E2071
:102950005246179990476D1CB9F10001A9F1010980
:10296000DEDC05E017F8010B5246179990476D1C05
:102970000299481E02900029F4DC53462146179A1A
:1029800003989EE62D0000002B00000020000000B0
:102990002DE9F041044600251E461746880404D45C
:1029A00005E039462020B0476D1C641EF9D5284645
:1029B000BDE8F0812DE9F041044600251E46904611
:1029C000C80301D5302700E02027880404D505E09E
:1029D00041463846B0476D1C641EF9D52846BDE80F
:1029E000F0810A68531C0B601070704708B50090A6
:1029F00002E00099491E009100990029F9D108BD13
:102A00002DE9F0410746884615460026002416E0C9
:102A100041463846FEF7D6F81B20FFF7E7FF294668
:102A20003846FEF7C6F8A0403043C6B241463846A5
:102A3000FEF7CAF81B20FFF7D9FF601CC4B2082CB0
:102A4000E6DB3046BDE8F08188B0FEF73FF9FDF7E0
:102A50004DFFFFF727FAFEF759FAFEF725FCFDF7C1
:102A60007DFFFDF7CBFFFEF7F3F8FEF70DFD00F05D
:102A7000D9F90120A14908703EE1FEF7AFF8A0495D
:102A80000870A048007800F001009F4908709D4838
:102A90000078C0F3400048709A480078C0F3800086
:102AA000887098480078C0F3C000C87095480078D6
:102AB000C0F30010087193480078C0F340104871CB
:102AC00090480078C0F3801088718E480078C00963
:102AD000C8718B480078012804D18C480078401CCC
:102AE0008A49087086480078022807D187484078CC
:102AF00008B9012000E0002084494870834800782C
:102B0000042802DB0020814908708048007830B139
:102B1000012823D0022843D0032856D14CE07B481B
:102B20004078D0B17A487B4908607B490860764894
:102B300080787549C9780840734909790840724915
:102B40004979084048B901206C4908700020714952
:102B50000860714908606D49487036E06B484078FC
:102B6000E8B1002419E06A486A4908606A490860C7
:102B7000654880786449C978084063490979084004
:102B800061494979084020B901205C49087000F08A
:102B900025F900205D494870641C022CE3DB14E039
:102BA0005A48407838B101205C49087000205949E2
:102BB00048605949486008E05448407820B10020F6
:102BC00000E0401C0428FCDB00BF00BF4F484078F9
:102BD00020B900204F4908604F4908604D490868F6
:102BE000FDF7F8FC4EA30622CDE9000100210846BE
:102BF000FEF7D9F947494868FDF7ECFC4CA30622DB
:102C0000CDE9000108210020FEF7CDF9414988688F
:102C1000FDF7E0FC4AA30622CDE9000110210020C7
:102C2000FEF7C1F93C490868FDF7D4FC48A3062229
:102C3000CDE9000100214020FEF7B5F9364948688A
:102C4000FDF7C8FC46A30622CDE90001082140207B
:102C5000FEF7A9F930498868FDF7BCFC44A30622B9
:102C6000CDE9000110214020FEF79DF927480078AA
:102C700043A30622182100900020FEF794F9234870
:102C8000407842A30622202100900020FEF78BF915
:102C90001A4800783FA30622202100904020FEF72A
:102CA00082F93F494868FDF795FC3EA30622CDE92D
:102CB000000128210020FEF776F91348C079124957
:102CC0008979114A5279104B1B79CDE90432CDE94B
:102CD00006100D48C17880780B4A52780A4B1B7851
:102CE000CDE90032CDE9020134A3062230210020D3
:102CF000FEF759F9FEF742FABFE600001E00002079
:102D00001C0000201D0000202800002022000020C0
:102D100000008C42300000205C00002021000020D8
:102D2000546172313A252B30342E30662020000059
:102D3000416374313A252B30342E30662020000058
:102D40004F7574313A252B30342E30662020000028
:102D5000546172323A252B30342E30662020000028
:102D6000416374323A252B30342E30662020000027
:102D70004F7574323A252B30342E306620200000F7
:102D800073746174653A2564202000006F6E3A25E3
:102D90006420200042757A7A3A25642020000000E1
:102DA0008800002073656E736F7256616C75657371
:102DB0003A252B30322E3066202000006461746189
:102DC0003A25642C25642C25642C25642C25642C40
:102DD00025642C25642C2564202000002DE9F04179
:102DE0000D4988684FF08241FDF718FA0746FDF754
:102DF000DDFBC4B2C4F15000C5B2C4F15000C6B28C
:102E00002846FDF7CEFB054908603046FDF7C9FBB3
:102E100003490860BDE8F0818800002030000020F0
:102E20005C00002008B501211020FEF7B1FA48200F
:102E30008DF803002020ADF8000003208DF802007B
:102E400069460648FDF72AFE10208DF80300ADF80C
:102E5000000069460148FDF721FE08BD0010014051
:102E60000000000000000000000000000000000062
:102E7000000000F8000000000000003330000000F7
:102E800000160E00160E00000000000000000000FA
:102E900040C07840C0784000043F04043F04040070
:102EA000007088FC08300000001820FF211E000080
:102EB000F008F000E018000000211C031E211E0095
:102EC00000F00888700000001E212324192721101B
:102ED000000000160E0000000000000000000000CE
:102EE000000000E018040200000000071820400065
:102EF00000020418E0000000004020180700000055
:102F0000404080F0804040000202010F01020200B8
:102F1000000000F0000000000101011F010101009C
:102F2000000000000000000000B070000000000081
:102F3000000000000000000000010101010101018A
:102F40000000000000000000003030000000000021
:102F500000000000806018040060180601000000F6
:102F600000E010080810E000000F102020100F00F3
:102F7000001010F8000000000020203F202000007A
:102F800000700808088870000030282422213000D2
:102F900000300888884830000018202020110E00DA
:102FA0000000C02010F8000000070424243F240083
:102FB00000F80888880808000019212020110E0058
:102FC00000E0108888180000000F112020110E006A
:102FD00000380808C83808000000003F0000000062
:102FE0000070880808887000001C222121221C0023
:102FF00000E010080810E0000000312222110F004C
:10300000000000C0C00000000000003030000000E0
:10301000000000C0C0000000000080B07000000090
:103020000000804020100800000102040810200069
:1030300040404040404040000404040404040400B4
:103040000008102040800000002010080402010049
:10305000007048080808F000000000303601000049
:10306000C030C828E810E0000718272423140B00FC
:103070000000C038E0000000203C23020227382076
:1030800008F8888888700000203F202020110E005A
:10309000C030080808083800071820202010080051
:1030A00008F808080810E000203F202020100F003A
:1030B00008F88888E8081000203F20202320180006
:1030C00008F88888E8081000203F2000030000006E
:1030D000C03008080838000007182020221E02000F
:1030E00008F808000008F808203F210101213F20CE
:1030F000000808F8080800000020203F20200000F9
:1031000000000808F8080800C08080807F000000E8
:1031100008F888C028180800203F20012638200021
:1031200008F8080000000000203F20202020300088
:1031300008F8F800F8F80800203F003F003F2000A2
:1031400008F830C00008F808203F200007183F00AA
:10315000E01008080810E0000F10202020100F00D9
:1031600008F808080808F000203F210101010000CC
:10317000E01008080810E0000F18242438504F0011
:1031800008F8888888887000203F2000030C3020D1
:1031900000708808080838000038202121221C000F
:1031A000180808F8080818000000203F2000000058
:1031B00008F808000008F808001F202020201F0041
:1031C0000878880000C83808000007380E010000A1
:1031D000F80800F80008F800033C0700073C03006B
:1031E000081868808068180820302C03032C3020D1
:1031F0000838C800C83808000000203F2000000040
:1032000010080808C8380800203826212020180097
:10321000000000FE020202000000007F404040006B
:10322000000C30C000000000000000010638C000A3
:1032300000020202FE000000004040407F0000004B
:10324000002010080408102000000000000000000A
:10325000000000000000000080808080808080806E
:103260000002040800000000000000000000000050
:1032700000008080808000000019242222223F204C
:1032800008F8008080000000003F112020110E008F
:103290000000008080800000000E1120202011001E
:1032A000000000808088F800000E112020103F20D0
:1032B0000000808080800000001F22222222130054
:1032C000008080F0888888180020203F202000009F
:1032D0000000808080808000006B94949493600054
:1032E00008F8008080800000203F210000203F205F
:1032F00000809898000000000020203F202000005F
:10330000000000809898000000C08080807F00004E
:1033100008F8000080808000203F24022D3020002B
:10332000000808F8000000000020203F20200000D6
:103330008080808080808000203F20003F20003FF0
:10334000008080008080000000203F2100203F207E
:103350000000808080800000001F202020201F00AF
:10336000808000808000000080FFA12020110E00DE
:103370000000008080808000000E112020A0FF80CF
:10338000808080008080800020203F21200001007C
:1033900000008080808080000033242424241900D1
:1033A000008080E0808000000000001F20200000DE
:1033B0008080000000808000001F202020103F201F
:1033C000808080000080808000010E3008060100AF
:1033D00080800080008080800F300C030C300F0054
:1033E00000808000808080000020312E0E3120007F
:1033F000808080000080808080818E7018060100AF
:1034000000808080808080000021302C22213000CC
:1034100000000000807C020200000000003F4040ED
:1034200000000000FF00000000000000FF0000009E
:103430000002027C800000000040403F00000000CD
:10344000008040408000008000000000000101007A
:103450000000000000000000002F00000000070036
:10346000070000147F147F1400242A7F2A120023EF
:10347000130864620036495522500000000700001E
:1034800000001C224100000041221C000014083EE4
:1034900008140008083E0808000000A060000008AA
:1034A00008080808000060600000002010080402FE
:1034B000003E5149453E0000427F400000426151BC
:1034C0004946002141454B31001814127F10002756
:1034D00045454539003C4A49493000017109050319
:1034E00000364949493600064949291E000036364A
:1034F00000000000563600000008142241000014AD
:103500001414141400004122140800020151090689
:10351000003E4955592E007C1211127C007F49490A
:103520004936003E41414122007F4141221C007F3B
:1035300049494941007F09090901003E4149497A49
:10354000007F0808087F0000417F410000204041C3
:103550003F01007F08142241007F40404040007F2F
:10356000020C027F007F0408107F003E4141413E73
:10357000007F09090906003E4151215E007F0919BB
:1035800029460046494949310001017F0101003FB8
:103590004040403F001F2040201F003F4038403F38
:1035A000006314081463000708700807006151499C
:1035B000454300007F414100000204081020000044
:1035C00041417F00000402010204004040404040AD
:1035D000000001020400002054545478007F484445
:1035E000443800384444442000384444487F00387C
:1035F0005454541800087E0901020018A4A4A47CA5
:10360000007F080404780000447D4000004080846E
:103610007D00007F102844000000417F4000007CB6
:1036200004180478007C08040478003844444438C2
:1036300000FC242424180018242418FC007C08040E
:10364000040800485454542000043F444020003CE7
:103650004040207C001C2040201C003C4030403C6E
:10366000004428102844001CA0A0A07C00446454FE
:103670004C440000087F41000000007F0000000073
:10368000417F0800000804081008A3AC00000000F7
:1036900000000000000000000000000000000058D2
:1036A00038000000000000000000000000A1A3009E
:1036B000000000000000000000000000000000000A
:1036C0000000182424180000000000000000000082
:1036D000C4E300008060F8074020180F08C80808FD
:1036E000281800010000FF00100C0340807F00013B
:1036F000061800BAC3001010F01F10F0008082827C
:10370000E2928A86800040221508166100004080FF
:103710007F0000000000CAC000202020FE2020FF03
:10372000202020FF20202020000000007F40404774
:10373000444444474040400000BDE700000000FE14
:10374000929292FE929292FE000000000808048479
:10375000621E010001FE020404080800000000FFD0
:103760000101013109090909897101010101FFFF05
:103770008080808080809681808080808080FFFF34
:1037800001818181FD8991A1C1FD81818101FFFFBD
:10379000808080809F888482819F80808080FF00DD
:1037A000C037000800000020E800000038210008B1
:1037B000A8380008E80000200008000048210008A0
:1037C00000000000010203040102030406070809C7
:1037D00002040608000000000000000000000000D5
:1037E00000000000000000000000000000000000D9
:1037F00000000000000000000000000085EBD13E4A
:10380000B81E853E0AD7A33D00000000000000005E
:10381000000000000000A0420000000000000000C6
:10382000000000000000000085EBD13EB81E853E80
:103830000AD7A33D000000000000000000000000C7
:103840000000A04200000000000000000000000096
:103850000000000085EBD13EB81E853E0AD7A33D8F
:1038600000000000000000000000000000002041F7
:10387000000020C100000000000000000000000067
:1038800085EBD13EB81E853E0AD7A33D000000005F
:1038900000000000000000000000A0420000000046
:0838A000000000000000000020
:0400000508000149A5
:00000001FF
