:020000040800F2
:10000000780A0020CD010008B5030008AD03000800
:10001000B103000887020008230D0008000000005B
:100020000000000000000000000000008D07000834
:100030008B02000800000000970600083109000844
:10004000E7010008E7010008E7010008E7010008F0
:10005000E7010008E7010008E7010008E7010008E0
:10006000E7010008E7010008E7010008E7010008D0
:10007000E7010008E7010008E7010008E7010008C0
:10008000E7010008E7010008E7010008E7010008B0
:10009000E7010008E7010008E7010008E7010008A0
:1000A000E701000895090008E7010008E7010008DA
:1000B000E7010008E7010008E7010008E701000880
:1000C000E7010008E7010008E7010008E701000870
:1000D000E7010008350B0008E7010008E701000808
:1000E000E7010008E7010008E7010008E701000850
:1000F000E7010008E7010008E7010008E701000840
:10010000E7010008E7010008E7010008E70100082F
:10011000E7010008E7010008E7010008E70100081F
:10012000E7010008E7010008E7010008E70100080F
:1001300000F002F800F03AF80AA090E8000C8244BF
:100140008344AAF10107DA4501D100F02FF8AFF29C
:10015000090EBAE80F0013F0010F18BFFB1A43F0A5
:1001600001031847D80B0000F80B0000103A24BF19
:1001700078C878C1FAD8520724BF30C830C144BF0C
:1001800004680C607047000000230024002500264E
:10019000103A28BF78C1FBD8520728BF30C148BFEA
:1001A0000B6070471FB51FBD10B510BD00F036F8CD
:1001B0001146FFF7F7FF00F0B6FD00F054F803B466
:1001C000FFF7F2FF03BC00F057F800000948804732
:1001D00009480047FEE7FEE7FEE7FEE7FEE7FEE729
:1001E000FEE7FEE7FEE7FEE704480549054A064B41
:1001F000704700003509000831010008780400202C
:10020000780A0020780600207806002070477047A2
:100210007047000000487047180400207546FFF73B
:10022000F9FFAE4605006946534620F007008546B3
:1002300018B020B5FFF7D8FFBDE820404FF000060A
:100240004FF000074FF000084FF0000B21F00701BE
:10025000AC46ACE8C009ACE8C009ACE8C009ACE801
:10026000C0098D46704710B50446AFF300802046A4
:10027000BDE81040FFF7A3BF01491820ABBEFEE761
:1002800026000200704700BFFEE770472DE9F041ED
:10029000024600250026002000230024002791F8B4
:1002A00003C00CF00F0591F803C00CF0100CBCF16A
:1002B000000F03D091F802C04CEA050591F800C088
:1002C000BCF1000F31D0146800202BE04FF0010C7E
:1002D0000CFA00F3B1F800C00CEA03069E4220D1EC
:1002E00083004FF00F0C0CFA03F7BC4305FA03FC34
:1002F0004CEA040491F803C0BCF1280F06D14FF07A
:10030000010C0CFA00FCC2F814C00AE091F803C01A
:10031000BCF1480F05D14FF0010C0CFA00FCC2F8FB
:1003200010C0401C0828D1D31460B1F800C0BCF143
:10033000FF0F34DD546800202EE000F1080C4FF070
:10034000010808FA0CF3B1F800C00CEA03069E425B
:1003500021D183004FF00F0C0CFA03F7BC4305FAD0
:1003600003FC4CEA040491F803C0BCF1280F05D14A
:1003700000F1080C08FA0CF8C2F8148091F803C0D8
:10038000BCF1480F07D100F1080C4FF0010808FA42
:100390000CF8C2F81080401C0828CED35460BDE889
:1003A000F0810AB1016100E04161704700BFFEE7E2
:1003B00000BFFEE77047000070B5002100230F2248
:1003C000C47804B3154C246804F4E064C4F5E06414
:1003D000210AC1F10403CA40447804FA03F1847885
:1003E0001440214309010E4C0678A155047804F00D
:1003F0001F050124AC4005786D11AD0005F1E02525
:10040000C5F8004109E0047804F01F050124AC4060
:10041000044D0678761145F8264070BD0CED00E0DD
:1004200000E400E080E100E002490143024A11607B
:10043000704700000000FA050CED00E000200CE021
:10044000002106E00022064B03EBC0135A544A1C5D
:10045000D1B28029F6DB421CD0B20828F0DB70470D
:100460001800002038B5002406E0002500E06D1CCF
:10047000B5F57A7FFBD3641CB4F57A7FF5D30121FF
:10048000082000F009F914208DF8030003208DF8EE
:1004900002004FF48070ADF8000069460848FFF78D
:1004A000F5FE4FF40070ADF8000069460448FFF710
:1004B000EDFE012000F0B0F8012000F0B9F838BDE1
:1004C000000C014070B50546002411E08021214157
:1004D000294009B1012100E00021084600F0A8F8F8
:1004E000012000F099F8002000F096F8601CC4B2DA
:1004F000082CEBDB012000F08FF8002000F08CF8D6
:1005000070BD10B5012000F093F8012000F084F8D0
:10051000002000F08DF8002000F07EF810BD10B52E
:10052000002000F085F8012000F076F8012000F0AE
:100530007FF810BD10B5FFF795FFAE2000F084F8EE
:10054000D52000F081F8802000F07EF8A82000F08F
:100550007BF83F2000F078F8D32000F075F80020F9
:1005600000F072F8402000F06FF8A12000F06CF865
:10057000C82000F069F8DA2000F066F8122000F0D8
:1005800063F8812000F060F8CF2000F05DF8D920FA
:1005900000F05AF8F12000F057F8DB2000F054F892
:1005A000302000F051F8A42000F04EF8A62000F012
:1005B0004BF88D2000F048F8142000F045F8AF20EB
:1005C00000F042F8FFF73AFF00F012F810BD70B5E6
:1005D00005460C4645F0B00000F036F8102141EA1F
:1005E000141000F031F804F00F0000F02DF870BD89
:1005F00010B500240BE000212046FFF7E8FF054975
:1006000001EBC410802100F02FF8601CC4B2082C4C
:10061000F1DB10BD1800002010B5044622464FF44F
:1006200080710248FFF7BDFE10BD0000000C0140C4
:1006300010B5044622464FF400710248FFF7B1FEA0
:1006400010BD0000000C014010B50446FFF759FF33
:100650007820FFF737FF0020FFF734FF2046FFF731
:1006600031FFFFF75CFF10BD70B505460E46FFF782
:1006700048FF7820FFF726FF4020FFF723FF0024E4
:1006800004E0285DFFF71EFF601CC4B2B442F8DB33
:10069000FFF745FF70BD704729B1064A92690243D2
:1006A000044B9A6104E0034A92698243014B9A61C8
:1006B000704700000010024030B5002100220024E5
:1006C00000232D4D6D6805F00C0121B1042905D0E2
:1006D000082923D105E0294D056022E0274D05605A
:1006E0001FE0254D6D6805F47012234D6D6805F40B
:1006F0008034022505EB92421CB9214D554305601B
:100700000BE01D4D6D6805F400351DB11C4D5543C2
:10071000056002E0194D5543056002E0174D056084
:1007200000BF00BF144D6D6805F0F0010909154DBB
:100730006B5C0568DD4045600F4D6D6805F4E06158
:10074000090A104D6B5C4568DD4085600A4D6D6897
:1007500005F46051C90A0B4D6B5C4568DD40C5600E
:10076000054D6D6805F44041890B074D6B5CC5680C
:10077000B5FBF3F5056130BD0010024000127A00B0
:1007800000093D000000002010000020704700001C
:1007900000B587B001218803FFF77EFF0121042007
:1007A000FFF77AFF18208DF81B004FF40070ADF8AA
:1007B000180003208DF81A0006A92148FFF766FDEE
:1007C00048208DF81B004FF48060ADF8180003201E
:1007D0008DF81A0006A91A48FFF758FD4FF4165075
:1007E00002900020ADF814000C20ADF8120000209B
:1007F000ADF81000ADF80E00ADF80C0002A91148DC
:1008000000F01EFA012240F225510E4800F0F3F9E3
:100810004FF4A060FFF708FE25208DF804000120AA
:100820008DF807008DF805008DF8060001A8FFF788
:10083000C3FD0121034800F0A8F907B000BD000086
:10084000000801400038014010B500F001F810BD6B
:100850000CB50020019000903348006840F48030CF
:100860003149086000BF3048006800F40030009053
:100870000198401C0190009818B90198B0F5A06F3C
:10088000F1D12948006800F4003010B10120009037
:1008900001E0002000900098012843D1234800681F
:1008A00040F01000214908600846006820F003006D
:1008B00008600846006840F0020008601A48406876
:1008C000194948600846406848600846406840F456
:1008D000806048600846406820F47C104860084604
:1008E000406840F4E81048600846006840F08070B6
:1008F000086000BF0C48006800F000700028F9D0C4
:100900000948406820F003000749486008464068ED
:1009100040F00200486000BF0348406800F00C004F
:100920000828F9D10CBD0000001002400020024050
:100930007047000010B51348006840F001001149ED
:10094000086008464068104908400E49486008465B
:1009500000680E4908400B4908600846006820F40A
:10096000802008600846406820F4FE0048604FF48C
:100970001F008860FFF768FF4FF0006004490860BF
:1009800010BD0000001002400000FFF8FFFFF6FE5F
:1009900008ED00E010B50121044800F01BF8012823
:1009A00003D10121014800F006F810BD002C0140E0
:1009B000CA4302827047CA430282704721B102884B
:1009C00042F00102028004E002884FF6FE731A40F2
:1009D0000280704730B50246002000230024158AAB
:1009E00005EA0103958905EA010413B10CB1012060
:1009F00000E0002030BD1AB183890B43838102E0FF
:100A000083898B438381704701894FF6F8721140C7
:100A100001817047002202881D4B98420ED01D4B69
:100A200098420BD0B0F1804F08D01B4B984205D0B4
:100A30001A4B984202D01A4B984204D14FF68F734A
:100A40001A404B881A43174B984207D0164B9842CE
:100A500004D04FF6FF431A40CB881A4302808B889C
:100A600083850B8803850A4B98420BD0094B98422B
:100A700008D00E4B984205D00D4B984202D00D4B3A
:100A8000984201D10B7A03860123838270470000CC
:100A9000002C0140003401400004004000080040E8
:100AA000000C0040001000400014004000400140D5
:100AB00000440140004801401FB50121C802FFF772
:100AC000EBFD1B48FFF7A0FF0020ADF80A00ADF8D2
:100AD000060040F2E730ADF808004720ADF804000A
:100AE00000208DF80C0001A91148FFF793FF0121A8
:100AF0000F48FFF75DFF012211460D48FFF77BFF0E
:100B00004FF4A060FFF790FC19208DF80000012041
:100B10008DF8030002208DF8010001208DF80200FD
:100B20006846FFF749FC01210148FFF747FF1FBD59
:100B3000002C014010B540F22551094800F031F871
:100B400001280CD1064800F0E7F80649087001209A
:100B50000549087040F22551014800F007F810BD22
:100B600000380140140000201500002010B50022BC
:100B7000002340F66A14A14200D100BF0A120124EA
:100B80009440A3B2DC43048010BD21B1828942F4B9
:100B90000052828104E082894DF6FF731A408281FF
:100BA000704770B50246002400230025002040F65F
:100BB0006A16B14200D100BFC1F3421501F01F0314
:100BC000012606FA03F3012D02D19689334006E08F
:100BD000022D02D1168A334001E0968A33400C126E
:100BE000012606FA04F41688344013B10CB1012032
:100BF00000E0002070BDF0B503460024002600256B
:100C0000002040F66A17B94200D100BF1846C1F370
:100C1000421401F01F06012707FA06F5012C01D145
:100C20000C3004E0022C01D1103000E014301AB175
:100C300007682F43076002E00768AF430760F0BD15
:100C40002DE9F04786B005460E460024A24600BFB7
:100C5000A1460027B08900B100BF2F462C8A4CF670
:100C6000FF700440F08804432C82AC894EF6F310E8
:100C70000440B08831890843718908430443AC813A
:100C8000AC8A4FF6FF400440B0890443AC8201A80F
:100C9000FFF712FD1F48874202D1DDF810A001E0E6
:100CA000DDF80CA0A88900F4004040B10AEBCA00AE
:100CB00000EB0A1031684900B0FBF1F807E00AEBDD
:100CC000CA0000EB0A1031688900B0FBF1F864201B
:100CD000B8FBF0F004012009642101FB1089A88908
:100CE00000F4004040B1322000EBC900B0FBF1F04D
:100CF00000F00700044308E0322000EB09106421F3
:100D0000B0FBF1F000F00F0004432C8106B0BDE809
:100D1000F08700000038014001468888C0F30800D1
:100D2000704700BFFEE7FFF7C7FEFFF703FCFFF7C2
:100D30002FFD01E0FFF75CFCFCE700005C0D000804
:100D400000000020180000006C010008740D00086D
:100D500018000020600A0000880100080000000060
:100D6000010203040102030406070809020406083D
:040D7000000000007F
:04000005080001CD21
:00000001FF
