:200000000080202085910000799100007991000000000000000000000000000000000000F6
:200020000000000000000000000000007991000000000000000000007991000079910000A2
:2000400079910000910A0000799100007991000079910000799100007991000079910000BF
:20006000000000007991000079910000000000000000000079910000799100005583000080
:200080007991000079910000799100007991000079910000353C00000000000000000000BD
:2000A00079910000799100000000000000000000799100000000000079910000799100000E
:2000C000F0B5FFB08EB0049306920646929802900025E84305908C913468204608F0BEFF9E
:2000E00021188B9503918C4200D3BBE00020879087A908738890059889902F46049D207879
:20010000002800D1AFE0252805D0641C34600699A8477F1CF3E78B97601C306087AC204657
:20012000314600F0A7F88CAA2046314600F0BFF8306801787A2925D0682919D06A2908D071
:200140006C290ED0742908D04C2922D1879980221BE087990122D20217E0879901225203EC
:2001600013E0427887996C2A64D10122120205E042788799682A60D101225202114387914B
:20018000801C05E08799012212030A438792401C0178441C346087A8017373291FD06E2992
:2001A00029D1879832490840202850D040283CD001214A03904238D04A02904242D0CA0242
:2001C000904205D00A0390422FD0090288422CD1F8178C9904C98C91176050603BE087A839
:2001E0000078400619D4009587A88CAA8BAB069900F01DF92FE007AD87A98CAA284600F0F8
:200200006DF9024628460699029B9847411C059D00D0C5198B9503991FE0009587A88CAA45
:200220008BAB069900F09FF815E08C9802C88C900F6010E0401C402201E0401C2022114373
:200240008791A5E78C9802C88C900F7003E08C9802C88C900F8003998B9D681C00D042E7B4
:20026000059F00E02F4638467FB00EB0F0BDC046603F000010B50A681378302B0FD0232B7E
:2002800007D02B2B09D02D2B05D0202B0ED1042306E0082304E0012302E0022300E01023A7
:2002A00004681C430460521C0A60E5E710BDFEB516460D460446086802782A2A10D130683B
:2002C000011D316000686060002805D54042606020680121014321602868471C2F6017E01B
:2002E0000021303A092A08D84218531C2B60435C6F467B545278491CF3E76A460023535466
:2003000012784718002A03D0684607F061FC606038782E2826D1781C286079782A2908D1FF
:200320003068011D31600068A0602868401C2860FEBD00203039092908D839188A1C2A60C3
:200340004A786B461A548978401CF3E76A46002111541078002804D0684607F039FCA060F1
:20036000FEBDA160FEBDF0B587B01E460C9F13681C1D14601D68002D3BD00491069084681F
:20038000002C04D4284608F04BFE844203D3284608F046FE044606984068A042039000DC83
:2003A000204601463068019140180296306005940398A0420EDD06980078C0070AD1059890
:2003C00001990E1A0024B44204DA20200499B847641CF8E70026049C069805998E420BDA71
:2003E0002868010A19D12D1DC0B22146B847761CF2E70020B84718E00599039A8A4214DDDC
:200400000078C00711D00198451A0024AC420CDA20200499B847641CF8E70020C0430299D3
:20042000086008F083FE5821016007B0F0BDF0B585B00C4606460A9D1068011D116000680F
:200440000490002844D00393B768002F04D4049808F004FE874203D3049808F0FFFD0746FE
:2004600002967268BA42114600DC3946039B18680091401818600192BA420FDD0298007850
:20048000C0070BD10098C01B039000260398864204DA20202146A847761CF7E70026BE4220
:2004A00005DA0498805D2146A847761CF7E70198B84210DD02980078C0070CD00098C61B70
:2004C0000027B74207DA20202146A8477F1CF8E700202146A84705B0F0BDC046F0B589B04F
:2004E00001920F460446FF210846FA30251878680290002607960391FE31202220460092C3
:2005000008F09EFD7F20800006942118089104952E713D46387B0246613A172A2AD8012305
:2005200093402C46B44D2B42254608D007A908AA2846019B00F066F900260596B3E0712520
:200540002B42254622D1022A14D1019B1868021D1A600068C2B2534253410593039AFC32A2
:20056000069B9A18089208702868022188432860002698E001464539032907D3252860D02A
:20058000412803D058280596D0D08DE0019A1068C11D0720814308460830106005C9D14343
:2005A0002F7B4900490D0BD17B3F944911400143049C2CD01920C1438F4234D36E2033E098
:2005C000002A01D4114602E00121C9075140D60F002205923A46413A062A0BD9613F062FDE
:2005E00061D8C0467F443F797F00BF440B5C5C5C3B3631007A441279520097440354545489
:20060000332E290008AB2A4601F010FE4BE0002311461A46059306F027FC1921C9438F4261
:2006200025D3662224E04E20E0708F4201D3612100E04121A17008946070002005900226B5
:2006400031E0002006994870252008700120A1E008AB2A4602F00AFB25E008AB2A4606F07B
:200660000FFF20E008AB2A4603F086FE1BE04622E2708F4201D36E2200E04E22A2708F42B5
:2006800001D3692100E0492161703F21C900069A51180891002803D02D202070042602E032
:2006A0002B2020700326287B012701466F39092904D801228A4052490A4201D158286BD10C
:2006C000049B029C04972946069F3D1908980C460978C90707D1191D091A62689142069F22
:2006E00001DC691A4F1C411C0398430000263846324607F09BFF08900599002903D0411CB8
:200700000891067000E00146A94206D8481E691A491C202208F094FC2E702078C00605D4ED
:200720000698391A202208F08BFC2EE0069887422BD00698391A3026324608F081FC0798C4
:200740004142414104980140012905D12078400702D43846069905E03878069A511C1070C3
:20076000781C3E70227B412A0CD0582A05D0612A08D0782A01D0702A07D123781B0701D422
:20078000612A02D142784A704670069808F066FC0599401809B0F0BD002E09D0012E049BA8
:2007A000029C8FD10120079029680220084007E0079A296802200840002A09D0049B029CC5
:2007C00008994A1E08922D220A704742474179E70028049B029C08D1480700D472E70898E2
:2007E000411E0891009901706CE70898411E08912B210170002765E708C19000FFFF0F0076
:2008000043020000F8B514460F4605468068002804D4286810218843286001E00120A860E6
:20082000287B1026582808D0782806D0702804D06F2801D1082600E00A262846194600F041
:2008400055F8AA68002A09D102460A4306D12878000749D52B7B0020024612E02B7B642BCF
:2008600003D1642300290BD504E0692B08D1002906D5692301223A60002240428A4100E027
:200880000A4600941146324600F0B0F8A968884206DA401C21684A1E226030220A70F5E7DB
:2008A000287B582803D0782801D070280FD1297809070CD5702800D1782021684A1E226053
:2008C00008702068411E216030210170287B6F280AD12878000707D520684178302903D071
:2008E000411E216030210170F8BDC04610B5037B702B05D10868021D0A60006800226FE015
:200900000068384A024001204403A24222D0402A20D00402A24230D04402A24246D0C40223
:20092000A2422AD00403A24214D0202A12D100221C46643C142C06D8A0402B4C204204D10D
:20094000212420423ED1582B49D10868031D0B60008845E000221C46643C142C06D8A0407A
:20096000214C204204D1212420422BD1582B36D10868031D0B60006832E01A46643A142AF5
:2009800006D89040184A104206D12122104203D10020582B024623D10868C21D072082439B
:2009A0001046083008601068526819E000221C46643C142C0CD8A0400B4C20420AD1212415
:2009C000204205D00868021D0A600068C21707E0582B04D10868031D0B60007800E01046BE
:2009E000114610BD603F000000081200FEB501920D460646582B01D0174800E015480090B5
:200A0000089802903046284305D1029A1068411E116030210170019C3046284313D0304670
:200A20002946224600F01AF807460D46224607F0D9FD301A0099085C029B19684A1E1A60C1
:200A400008703E46E8E70298006808F007FB401EFEBDC04660A9000071A9000080B5102A1E
:200A600006D0082A09D1C0084A078018C90880BD00090A078018090980BD002904D111467F
:200A800007F066F8002180BD002308F05DFA80BD80B596B0FC48012107F0ECFF159015A8CF
:200AA0000078C007002862D0FFE701F087F9F7480078002810D0FFE7F44900200870F44890
:200AC0000068F4490860F4480068F4490860F4480068F4490860FFE7ED480068ED4909684D
:200AE00004F0E0FCF0490391C861EB480068EB49096804F0D7FC03998861E9480068E949D9
:200B0000096804F0CFFC0399086200210191E7480090405E07F0ACF9039A01460098116006
:200B20000221405E07F0A4F9039A0146009851600421405E07F09CF90199039A9060DC4899
:200B40000290405E07F094F90199039B02460298DA60405E07F08CF90199039B0246029859
:200B60001A61405E07F084F903994861FFE7C648102107F07FFF002840D0FFE714A901200D
:200B80000870C148102108F0F2F8002804D0FFE713A90120087003E013A900200870FFE76D
:200BA000B948202108F0E3F8002804D0FFE712A90120087003E012A900200870FFE7139823
:200BC000129940181499411811A801700078002805D0FFE711A80078022805D1FFE7B54972
:200BE0000888401C088004E0B2490888401E0880FFE7A548102107F0E7FDFFE7A24820213C
:200C000007F038FF002840D0FFE714A9002008709D48102108F0ABF8002804D0FFE713A9E4
:200C20000120087003E013A900200870FFE79648202108F09CF8002804D0FFE712A9012095
:200C4000087003E012A900200870FFE71398129940181499411811A801700078002805D0AD
:200C6000FFE711A80078022805D1FFE7F1490888401C088004E0EF490888401E0880FFE751
:200C8000EB48202107F0A0FDFFE7E948402107F0F1FE002840D0FFE710A901200870E44852
:200CA000402108F064F8002804D0FFE70FA90120087003E00FA900200870FFE7DC4880216E
:200CC00008F055F8002804D0FFE70EA90120087003E00EA900200870FFE70F980E994018DF
:200CE000109941180DA801700078002805D0FFE70DA80078022805D1FFE7CF490888401C5A
:200D0000088004E0CC490888401E0880FFE7C848402107F059FDFFE7C548802107F0AAFE05
:200D2000002840D0FFE710A900200870C048402108F01DF8002804D0FFE70FA9012008709B
:200D400003E00FA900200870FFE7B948802108F00EF8002804D0FFE70EA90120087003E0C5
:200D60000EA900200870FFE70F980E994018109941180DA801700078002805D0FFE70DA860
:200D80000078022805D1FFE7AB490888401C088004E0A9490888401E0880FFE7A4488021CE
:200DA00007F012FDFFE70120C105A14807F062FE002842D0FFE70CA901200870C1059C4808
:200DC00007F0D5FF002804D0FFE70BA90120087003E00BA900200870FFE7012041039448C3
:200DE00007F0C5FF002804D0FFE70AA90120087003E00AA900200870FFE70B980A99401858
:200E00000C99411809A801700078002805D0FFE709A80078022805D1FFE788490888401E89
:200E2000088004E085490888401C0880FFE70120C1057F4807F0C8FCFFE7012041037C48A6
:200E400007F018FE00285BD0FFE70CA9002008700120C105764807F08AFF002804D0FFE7F8
:200E60000BA90120087003E00BA900200870FFE7012041036E4807F07AFF00281CD0FFE78B
:200E80000AA9012008701BE000200A400D052020E0042020E4042020E8042020EC042020A7
:200EA000F0042020F40420200C072020D8042020D2042020DE0420200AA900200870FFE7EE
:200EC0000B980A9940180C99411809A801700078002805D0FFE709A80078022805D1FFE7EA
:200EE00056490888401E088004E054490888401C0880FFE7012041034D4807F065FCFFE7CA
:200F00000120C1044A4807F0B5FD002842D0FFE708A901200870C104454807F028FF0028AE
:200F200004D0FFE707A90120087003E007A900200870FFE7012081043D4807F018FF00283C
:200F400004D0FFE706A90120087003E006A900200870FFE70798069940180899411805A842
:200F600001700078002805D0FFE705A80078022805D1FFE732490888401E088004E030494C
:200F80000888401C0880FFE70120C104284807F01BFCFFE701208104254807F06BFD002813
:200FA00043D0FFE708A9002008700120C104204807F0DDFE002804D0FFE707A901200870A4
:200FC00003E007A900200870FFE701208104184807F0CDFE002804D0FFE706A9012008700E
:200FE00003E006A900200870FFE70798069940180899411805A801700078002805D0FFE7D8
:2010000005A80078022805D1FFE70D490888401E088004E00A490888401C0880FFE7012047
:201020008104034807F0D0FBFFE716B080BDC04600200A40DE042020FC042020FE04202021
:201040000005202070B598B01690159114A8027011AB0120187000205870D94948680078CD
:201060000968897C022206F07BFF002804D0FFE70020C04317902FE2C82007F0A1FC11AB71
:2010800000201870CE49486800780968C97B012206F066FF002804D0FFE70020C04317908A
:2010A0001AE2C7494868007809684979012211AB06F056FF002804D0FFE70020C0431790F3
:2010C0000AE2BF49486800780968897C012211AB06F046FF002804D0FFE70020C0431790B8
:2010E000FAE1B749486800780968C97D012211AB06F036FF002804D0FFE70020C043179080
:20110000EAE1F7494868007809680979012211AB06F026FF002804D0FFE70020C043179003
:20112000DAE111AB0C201870ED494868007809680979012206F014FF002804D0FFE7002005
:20114000C0431790C8E10F2007F03AFCE449886A407A11AB18704868007809688978012206
:2011600006F0FEFE002804D0FFE70020C0431790B2E1DB49886A007A11AB18704868007842
:2011800009684978012206F0EBFE002804D0FFE70020C04317909FE114A80078002808D0BB
:2011A000FFE7CF48806A807AE021084311A9087005E0CB48806A807A11A90870FFE7C849CB
:2011C0004868007809688979012211AB06F0C8FE002804D0FFE70020C04317907CE114A814
:2011E0000078002808D0FFE7BD48806AC07AE021084311A9087003E011A918200870FFE7B7
:20120000B749486800780968C979012211AB06F0A7FE002804D0FFE70020C04317905BE191
:2012200014A80078002804D0FFE7C82007F0C8FBFFE711AB40201870A949486800780968E1
:201240000979012206F08CFE002804D0FFE70020C043179040E111AB78201870A049486827
:20126000007809684979012206F07AFE002804D0FFE70020C04317902EE1322007F0A0FB93
:2012800011AB0020187096494868007809684979012206F065FE002804D0FFE70020C0432F
:2012A000179019E18E49486800780968897A022211AB06F037FE002804D0FFE70020C0430A
:2012C000179009E11198000211A9497841180EA8018000880C2106F03BFC10A90870169905
:2012E0000020886016994860169908601599886015994860159908600FA90870FFE70FA8A9
:20130000007810A9097888425CDAFFE77449486800780968C97A0C2211AB06F003FE002893
:2013200004D0FFE70020C0431790D5E01198000211AD0995697841180CA80180A9780902D2
:20134000EA7889184180129909026A79891881800023C45E159A1168091911600222865E86
:20136000159C6168891961600421465E159CA0688019A060A8790002EC7904190AA804809A
:20138000139C24026E7AA4194480AC7A2402ED7A64198480C55E169C23685B192360845EA2
:2013A000169B5A6812195A60425E1699886880188860FFE70F98401C0FA908709FE7C04671
:2013C000E0062020169800900068C117020C090489180004832202920023079307F0AAFD15
:2013E000079B10AA0692127807F0A4FD0099029A079B0860169801904068C117040C0904BC
:201400000919000407F096FD069A079B127807F091FD0199029A079B486016980390806822
:20142000C117040C09040919000407F083FD069A079B127807F07EFD0399069A079B886016
:20144000159804900068C117040C0904091900046405C00A0019C912127807F06BFD04991B
:20146000069A079B0860159805904068C117040C0904091900046405C00A0019C91212780C
:2014800007F058FD0599069A079B4860159808908068C117040C0904091900046405C00AFD
:2014A0000019C912127807F045FD0899886015988068012806DBFFE715998868094A8018DE
:2014C000886006E0159988680122120480188860FFE700201790FFE7179818B070BDC046AA
:2014E000E00620200000FFFFF0B589B00F4605460120C1073E468E43B14886420BD3D14854
:201500003018284300D190E007F010FE21210160CD49002550E1AB48864212D8C64AC74BFC
:201520002846394601F01DFF0022A54B05F0BAFC002800D186E0C248864200D382E039460F
:201540003AE10291089700249D4920462A46334601F002FF9C4B224603F09CFC05460F4679
:201560009A4A9B4B03F096FC9A4A9B4B01F0F9FE07F0A8FD994A9A4B01F0F3FE07F0A2FD8E
:20158000984A994B01F0EDFE07F09CFD974A984B01F0E7FE07F096FD964A974B01F0E1FE63
:2015A00007F090FD06900791944A954B07F0DEFD944A954B01F0D5FE07F084FD934A944B33
:2015C00001F0CFFE07F07EFD924A934B01F0C9FE07F078FD22467A4B01F0C3FE03900491F6
:2015E0002846394602F0BCF905900C468B48864200D283E007F083FD02460B46059D284680
:20160000214603F047FC2A4607F0BAFD02460B4601F0A7FE824A864B01F0A3FE02460B4618
:201620008148844901F098FEC0E07D4A7D4B07F09DFD04460E467C4A7E4B07F097FD2246AD
:20164000334657E0284639462A463B4603F022FC064608970F465D4A5D4B03F01BFC5D4AAB
:201660005D4B01F07EFE07F045FD5C4A5C4B01F078FE07F03FFD5B4A5B4B01F072FE07F092
:2016800039FD5A4A5A4B01F06CFE07F033FD594A594B01F066FE07F02DFD04460791574A09
:2016A000574B3046394603F0F5FB564A564B01F058FE07F01FFD554A554B01F052FE07F09E
:2016C00019FD544A544B01F04CFE07F013FD00223B4B01F046FE02460B462046079902F007
:2016E000EFFF02460B462846089C214603F0D2FB2A46234601F035FE05465DE00026304609
:20170000214632460196234603F0C4FB02460B462846394601F020FE00900F46059D2846AE
:201720002146324607F02CFD02460B460098394602F0C6FF06460F4607F0E1FC07900691A0
:20174000284621462A4607F01BFD059004913046394632463B4601F004FE02460B46304819
:20176000304901F0F9FD05460F4605980499079A069B03F08FFB2A463B4601F0EDFD054659
:201780000F4601982146024607F0FAFC02460B46254C264E2046314601F0DEFD2A463B46A7
:2017A00001F0DAFD2246334601F0DBFD05460898002801DC02984140284609B0F0BDC046D2
:2017C0000000F03FFFFFDF3F0000E03F09F7FD0DE13D023F88B20175E0EF493F3B8F68B548
:2017E0002882A4BF5544880E55C1C93F7D6FEB0312D6D4BF555555555555C53F82922EB145
:20180000C5B8B33F59018D1B6C06E6BFC88A599CE52A00404B2D8A1C273A03C03333EF3FD4
:20182000075C143326A6913C182D4454FB21E93F26A691BCFB21F93F9C7500883CE4377E69
:201840000000503E000010C00000F87FF0B587B005460F460122D0070E468643924886427E
:201860000DD3B448864203D8002D3FD086423DD1284639462A463B4601F073FDE2E08B4803
:201880008642039112D8914A914B2846394601F068FD00248B4B224605F004FBE1430291FB
:2018A000002869D0B00DF92866D2CDE08048864220D8854886423FD8284631462A46334602
:2018C00001F04FFD00277C4B3A4601F04AFD044628460D4601218B07314602973A4601F0E5
:2018E00040FD02460B462046294636E0002920DC924F1FE06F48864234D800246F4B28464B
:2019000007F028FC2A4605460F466D4B10463146224603F0BFFA6B4B224601F022FD02468D
:201920000B462846394602F0CBFE05460F46022021E0814F824D87E0029200245E4B284616
:2019400007F008FC2A4605460F465E4B104607F001FC02460B462846394602F0B1FE054617
:201960000F4609E0002054492A46334602F0A8FE05460F46032002900695284639462A469E
:201980003B4603F087FA0590049102460B4603F081FA04460D464F4A4F4B03F07BFA4F4A50
:2019A0004F4B01F0DEFC07F09BFB4E4A4E4B01F0D8FC07F095FB4D4A4D4B01F0D2FC07F0D3
:2019C0008FFB4C4A4C4B01F0CCFC07F089FB4B4A4B4B01F0C6FC02460B460598049903F078
:2019E00059FA04900591474A474B2046294603F051FA464A464B01F0B4FC07F071FB454A80
:201A0000454B01F0AEFC07F06BFB444A444B01F0A8FC07F065FB434A434B01F0A2FC07F094
:201A20005FFB224A964213D8049A059B01F099FC02460B4607F075FB02460B4620463946DB
:201A400001F08AFC05460F462846394607B0F0BD029AD400354A1319125902925A680192AF
:201A6000049A059B01F07DFC02460B463048011906594D6807F055FB32462B4601F06CFCF6
:201A800022463B4601F068FC02460B460298019901F062FC05460F4603980028D4D50120BF
:201AA000C0074740D0E7C04600001044FFFFDB3FFFFFF23FFF7F03400000F0BF0000F8BF59
:201AC0000000F83F0000F03FFFFFE53F9C7500883CE4377E11DA22E33AAD903FEB0D7624D8
:201AE0004B7BA93F513DD0A0660DB13F6E204CC5CD45B73FFF8300922449C23F0D555555A2
:201B00005555D53F2F6C6A2C44B4A2BF9AFDDE522DDEADBF6D9A74AFF2B0B3BF711623FE59
:201B2000C671BCBFC4EB98999999C9BF10A7000030A700000000F07FFB21F93FFB21F9BF34
:201B4000182D445480B58AB009A90591088006AA049202201070CA205070E32090700920AB
:201B6000D0706820042104F071F8049A0598A321117000884006002808D5FFE706A9C02053
:201B80004870C8208870C220C87005E006A9A32048708870C870FFE709A80088C005800FE1
:201BA000002808D0FFE706A9C4200871CC204871C620887105E006A9A3200871487188712D
:201BC000FFE706AAA320D0711072507275480A2104F03CF809A800888007002804D0FFE775
:201BE00006A92020087003E006A9D8200870FFE76D48012106AA04F029F809A8008880063B
:201C0000002804D5FFE7012005F0B8F903E0002005F0B4F9FFE709A80088C005800F0028D6
:201C200020D0FFE709A80088C00500280AD5FFE706A9B22008708B204870B62088709B20FE
:201C4000C87009E006A9B020087080204870B42088709020C870FFE75448042106AA03F016
:201C6000F5FFFFE709A80088C007002826D0FFE706AAF82010708B2000010121039103F0E9
:201C8000E5FF07200290FA2100F0B4F9029805F07CF8039805F0D8FE642006F02AFB7D204A
:201CA000800006F03EFB4248C82105F0ABFE282006F0D5FA0A2006F0EBFA08E006AAD820C2
:201CC00010708B200001012103F0C0FFFFE709A800888007002804D5FFE706A9D920087057
:201CE00003E006A9D8200870FFE73248012106AA03F0ACFF09A800884007002804D5FFE7AB
:201D0000012005F039FE03E0002005F035FEFFE709A80088C006002804D5FFE7012005F069
:201D200007FE03E0002005F003FEFFE709980821084321490191488100F088FB01990020B8
:201D4000887309A800884006002805D5FFE71A49887B801D8873FFE709A80088C005800FB0
:201D6000002805D0FFE71449887B801D8873FFE709A800881421084205D0FFE70E49887BD5
:201D800010308873FFE709A800888007002805D0FFE70949887B001D8873FFE700200AB052
:201DA00080BDC046A70A0000B60A0000A20A000009E3CA023D07000048072020B0B5A8B07B
:201DC00026A801907F48219000907F487F4922AA27AB00F051FE21980088C005002800D42E
:201DE000EEE0229806F044F89D21C905039104F01DFC774914910860239806F039F80399B1
:201E000004F014FC734911910860249806F030F8039904F00BFC704912910860259806F010
:201E200027F8039904F002FC014611986B4A13921160006803218907099104F0A3FA139947
:201E4000024614980592096804910168084603F02EFB1299096804F095FA049902460598FD
:201E6000069204F08FFA069903F021FB05F090FEFFF73AFB5A4A1F925A4B209303F00AF84F
:201E800004F0C6FD01461298574A116001680A91084603F00CFB1399024614980B9209688E
:201EA00007910168084603F002FB119909680C9104F068FA079902460B98089204F062FA60
:201EC000089903F0F4FA05F063FE02460C980F920A460999109204F055FA0A9902460B9838
:201EE0000D9204F04FFA0C9902460D980E9204F049FA0E9903F0D6FA7F21C90503F0D7FA01
:201F000005F046FE02460F980B46109901F0EEFA1F9A209B02F0BEFF04F07AFD119B129AE0
:201F2000139904461498314D2C601B681693126819920068179009681B9104F023FA1999B5
:201F400002461698159204F01DFA159903F0AFFA0146084603F0ABFA05F01AFE1D9008465A
:201F600016991E90084604F00DFA17991890084604F008FA189903F09AFA19991A9008463D
:201F800004F000FA01461A9803F08CFA1B991C90084604F0F7F901461C9803F083FA05F0EF
:201FA000F7FD02461D980B461E9901F09FFA1F9A209B02F06FFF04F02BFD0D490860FFE70A
:201FC00028B0B0BD06052020D8042020D20420207007202074072020780720207C0720204B
:201FE0006666666666A64C40E8042020E0042020F004202080B58AB0024608A8027007AAA3
:20200000118000784007002806D0FFE707A800888049884204DBFFE70020C0430990F5E06C
:2020200007A8008806F07EFA7B4904F0FFFA049005A8009004F060FD00980078801E0190E9
:202040000E286BD80198810001A040588746C0468D2000001D210000B12000001D210000E7
:202060001D2100001D210000D52000001D2100001D2100001D2100001D2100001D210000B9
:202080001D2100001D210000F920000004988D21C90504F077F905F0DBFF03A90880049890
:2020A000614904F06FF905F0D3FF02A9088039E004982321490604F065F905F0C9FF03A91D
:2020C00008800498574904F05DF905F0C1FF02A9088027E004988B21C90504F053F905F0B8
:2020E000B7FF03A9088004984D4904F04BF905F0AFFF02A9088015E004984521090604F0BC
:2021000041F905F0A5FF03A908800498434904F039F905F09DFF02A9088003E00020C043A0
:20212000099073E003A8407806A908700398487002A8407888700298C87008A80078C007BB
:2021400000281CD0FFE775208000022106AA03F07DFD002804D0FFE70020C043099055E05D
:2021600006A8821C49208000022103F06FFD002804D0FFE70020C043099047E0FFE708A84D
:202180000078800700281CD5FFE73B20C000022106AA03F05BFD002804D0FFE70020C04303
:2021A000099033E006A8821C2520C000022103F04DFD002804D0FFE70020C043099025E01F
:2021C000FFE708A80078400700281CD5FFE777208000022106AA03F039FD002804D0FFE7B6
:2021E0000020C043099011E006A8821C4B208000022103F02BFD002804D0FFE70020C043B8
:20220000099003E0FFE700200990FFE709980AB080BDC04641060000000048430000C04449
:20222000000040450000C04500004046F0B5A5B0049308920E46074600240A947E4D2246CD
:202240002B4604F025FE002813D100247B4D3846314622462B4604F011FE002809D1002209
:2022600038463146134604F0F5FD00283C46354607D10AAA2046294604F070FF0A98401E41
:202280000A900899087B0BAE412801D06D4800E06B48099088680190302003903070002286
:2022A000079220462946134604F0DEFD01210028029101D0C8074540771C20462946079A7D
:2022C000134604F0C7FD00280DD124AA2046294604F044FF249801210A1A2046294603F043
:2022E00075F804460D462046294605F08FFA06463946059705F098F80690304606F056F845
:2023000006F0D3FE04460D460198471C20D3059806994618002220462946134604F09AFDF5
:20232000002848D1002220462946474B02F0B2FD04460D4605F06AFA0999095C771C317001
:2023400006F034F806F0B1FE04460D463E46E1E70BA806994618002F16D07F1E00222046E3
:202360002946394B02F096FD04460D4605F04EFA0999095C3246761C517006F017F806F03E
:2023800094FE04460D46E6E73178099C204606F0EFFD001B08280EDB0196741E089D079F03
:2023A000099E2178304606F0E3FD801B0E2805DD2770641EF5E7089D079F04E009990818F8
:2023C00040782070019E37700A98297B4129049C01D0702100E05021069E059F224605F0C7
:2023E00027F9AA68501C04D1384606F037FE421EAA6038463146234605F063FFA86800286A
:20240000029A02D128680007C20F38463146234604F088FC287B412801D0782000E0582042
:2024200021684A1E226008702068411E21600399017025B0F0BDC0460000F07F0000F0FF56
:2024400060A9000071A900000000304080B582B08548807A002804D1FFE70020C043019024
:20246000FEE06B46002018707F49486800780968C97B012205F074FD002804D0FFE70020F5
:20248000C0430190ECE07849486800780968497901226B4605F064FD002804D0FFE7002094
:2024A000C0430190DCE07049486800780968097901226B4605F054FD002804D0FFE70020DC
:2024C000C0430190CCE068482421405C002861D0FFE76B460C201870634948680078096842
:2024E0000979012205F03CFD002804D0FFE70020C0430190B4E06946C02008705A48807A3C
:20250000C007002806D0FFE700982021084369460870FFE754494868007809680979012204
:202520006B4605F01DFD002804D0FFE70020C043019095E04C48407C002804D0FFE76946EF
:202540000220087003E0694600200870FFE74649486800780968C97B01226B4605F000FD9F
:20256000002804D0FFE70020C043019078E06B46002018703C494868007809684979012211
:2025800005F0EEFC002804D0FFE70020C043019066E062E06B46042018703349486800783D
:2025A00009680979012205F0DBFC002804D0FFE70020C043019053E02B48807C002806D102
:2025C000FFE72948807AC007002804D1FFE769464020087003E0694660200870FFE722499E
:2025E000486800780968097901226B4605F0B8FC002804D0FFE70020C043019030E01A483B
:20260000407C002804D0FFE769460120087003E0694600200870FFE71349486800780968CF
:20262000C97B01226B4605F09BFC002804D0FFE70020C043019013E00B4B5868007819685E
:2026400049791033012205F08BFC002804D0FFE70020C043019003E0FFE700200190FFE7E0
:20266000019802B080BDC046E006202080B588B005AB802018707D49486800780968897CFD
:20268000012205F06DFC002804D0FFE70020C0430790E8E0642006F093F905AB00201870F7
:2026A0007249486800780968897C012205F058FC002804D0FFE70020C0430790D3E06B4952
:2026C000486800780968897D062205AB05F02AFC002804D0FFE70020C0430790C3E005A97B
:2026E0004879C007400FCA78D207920F8018497801221140411804A80170007800281DD077
:20270000FFE704A80078012804D1FFE757490120C87412E004A80078022804D1FFE7534937
:202720000020C87408E004A80178534804F072FD0020C043079096E0FFE732E04B494868C6
:2027400000780968C978012205AB05F0EBFB002804D0FFE70020C043079084E005A801787B
:202760000F20014004A801700078002807D1FFE73F4804F04FFD0020C043079073E004A8EE
:202780000078042807D1FFE73A4804F043FD37490120C87403E035490020C874FFE7FFE7BB
:2027A000FFE732490291FF2088720A46083208724872C872314BCB81087488740120087338
:2027C000907600200390D076487508750884C883888348830883C88210775077C8847D2007
:2027E000000103F003F8002804D0FFE70020C043079038E0022002F0BFFB002804D0FFE786
:202800000020C04307902EE02A2002F021FF002804D0FFE70020C043079024E0322002F0B0
:202820004FFA002804D0FFE70020C04307901AE0002003F09FF8002804D0FFE70020C0430A
:20284000079010E0002000F0B7FC002804D0FFE70020C043079006E00020019001F062FCAC
:2028600001980790FFE7079808B080BDE0062020C1A60000F9A8000020A80000FFFF0000BA
:2028800080B590B0002008900421039105F0E2FF73480A9001210C9106F0D4F803990C9866
:2028A00005F0D8FF0A980221069106F0CBF803990D2005F0CFFF0A98802106F0C3F82E2069
:2028C000032105F0C7FF0A980C99890506F0BAF80399089B0C980193C004099000900F2009
:2028E00004901A4605F010FA0399089B0998019300900E2005901A4605F006FA049805F038
:202900008DFF059805F08AFF0699142005F0A2FF0699152005F09CFE0899099B0C980091CA
:20292000420407920B2005F0E5FB3B2006F0BAF81F2006F0B7F8262006F0B4F8079A0899A7
:20294000099B0091212005F0D5FB079A0899099B0091222005F0CEFB232006F0A3F82420AD
:2029600006F0A0F8362006F09DF8079A0899099B00911C2005F0BEFB079A0899099B009110
:20298000182005F0B7FB079A0899099B0091192005F0B0FB079A0899099B00911A2005F062
:2029A000A9FB089A099B00921020114605F0A2FB089A099B00921120114605F09BFB089AF5
:2029C000099B00921620114605F094FB089A099B00921720114605F08DFB089A099B0092F5
:2029E0003220114605F086FB089A099B00921D20114605F07FFB089A099B00922C20114662
:202A000005F078FB089A099B00922B20114605F071FB0A9813490B9106F01EFA0A980B9985
:202A200006F010F80C98C1030D910F480E9006F013FA0D990E9806F005F80E980B4905F06C
:202A400017FF0E980A4906F075F80E9809490F9105F0C8FE0E980F9905F0EEFE10B080BD85
:202A600000000A4000C0020A00200A400255000450400000F1208C0010B594B0179C169CE0
:202A80001290119110920F9306A900200870169908807448807B179A07A901F01BFF0028E5
:202AA00004D0FFE70020C0431390D7E06D484089142108426CD0FFE70798000607A90091DA
:202AC0004A78120480188A7812028018CA788018109A1060089800064A79120480188A79CA
:202AE00012028018CA798018109A5060099800064A7A120480188A7A12028018CA7A801850
:202B0000109A90600A9800064A7B120480188A7B12028018C97B40181099C8600698103004
:202B200006A9087010980221405E029010980621405E039010980A21405E049010980E2197
:202B4000405E059002984043039949434018049949434018059949434018019001980F2148
:202B60000906884205DBFFE701983F49884208DBFFE7FFF76BFC169900200880C0431390A8
:202B80006CE0169908880122120210430880FFE7344840894006002823D5FFE706A90878F2
:202BA00007AA1318105C00025B78C018119B18800878831898780002DB78C018119B588000
:202BC000087882181079000252798018119A90800698801D0870169908880822104308803B
:202BE000FFE720484089C005800F002823D0FFE706A9087807AA1318105C00025B78C01845
:202C0000129B18800878831898780002DB78C018129B58800878821810790002527980188A
:202C2000129A90800698801D087016990888702210430880FFE70B4840898007002807D0F1
:202C4000FFE706A8017807A8401803F0E1FBFFE70F9806F07BFA00201390FFE7139814B081
:202C600010BDC0464807202001000011F0B5A3B003930F46044604929168002903D00029FF
:202C800004D5062100E001210498816007910AA83021089101700025204639462A462B4625
:202CA00004F0E2F801210028059101D0C8074740624E20463946604A334604F0F3F8002880
:202CC00009D00022204639465E4B01F0F9FC04460F466D1CEDE75A4E00222046394609923F
:202CE000134604F0B7F8002811D1002220463946334604F0B9F8002809D0002220463946A1
:202D0000504B02F0C7F804460F466D1EE4E702950AA8451C2046394604F078FD0695294670
:202D200004F082FB07998842019004DD481C0AA90A18085C1FE0C9430E180AA90D18681C1C
:202D400007902046394604F061FD05F02FFB02460B462046394600F0FFFA0022394B02F087
:202D600099F804460F4604F051FD079A30306870761C1546E3D3C0B23528039E049F029BB5
:202D8000099D0FD31446501E0178491CCAB201703A2A03D330210170401EF5E70AA9884265
:202DA000224640D00198C41815700220C043844202DBB868844207DD601E397B891EC9B2BB
:202DC000324604F035FC0124069806F047F9401E0599A0421ADB0028089A01D4069A125CDD
:202DE0001346303B5D1EAB41C9431943C90705D13978090702D40025059905E031684B1E59
:202E000033600A7001250021401EE2E73868082202402A43501E824106982146334603F01C
:202E200081FF23B0F0BD501E002101700198C018441C0AA80690B8E70000C0FFFFFFDF41FD
:202E40000000F03F0000244010B592B05B48007800905B4B00210A9106220F92084604F0C0
:202E600057FE0A990F9A574800780090564B3620109004F04DFE55480590C06904F088FE5F
:202E80000F9A03460A9803930B460399019300914F4B082104F03CFE0598806904F078FE15
:202EA0000F9A03460A9804930B46049901930091484B102104F02CFE0598006A04F068FE91
:202EC0000F9A03460A9806930B46069901930091414B182104F01CFE40480E90406804F01B
:202EE00057FE0F9A03460A9807930B460799019300913B4B20210C9104F00AFE39484068B0
:202F000004F046FE0F9A03460A9808930B46089901930091344B28210D9104F0F9FD334868
:202F2000406804F035FE0F9A03460A9809930B460999019300912E4B3021119104F0E8FD35
:202F40002C48406804F024FE0F9A03460A980B930B460B9901930091274B382104F0D8FD5F
:202F60000E98006904F014FE0F9A034610980C460C9901940093214B04F0CAFD0E9840690D
:202F800004F006FE0F9A034610980C460D99019400931B4B04F0BCFD0E98806904F0F8FDF4
:202FA0000F9A034610980C46119901940093154B04F0AEFD04F074FC12B010BD0E0520200E
:202FC000B6A900000F05202082A900000C072020AAA900009EA90000C1A900000006202076
:202FE000E0A900003806202008AA000070062020EAA90000A806202012AA0000FEA900007E
:20300000D6A90000F4A90000B0B58AB01C4613460A4601460E9809A8018008A90A8007AADF
:20302000137006AB1C7005AD002401942C7004AD00952C70005F095F12781B7802F070FBA6
:20304000009901980870FFE704A8007806A90978491E4A0F8918C910491C884200DBA6E0C2
:2030600005A900200870FFE705A8007807A90978884200DB95E0002109A8405E05A9097815
:203080004018002800D586E0002109A8405E05A9097840187F287EDCFFE7002108A8425E26
:2030A000530FD218D20803AB1A80425E530FD3180724A343D21A02AB1A80405E002809D5CD
:2030C000FFE70398401E03A908800298083002A90880FFE7002103A8405E04A90978401802
:2030E000002824D4FFE7002103A8405E04A90978401807281BDCFFE70E9804A9097807AA49
:2031000013784B4305AA12789B18C35C002402A8005F834003A8005F4018C10125484118B1
:2031200009A8005F8218885C18438854FFE7002103A8405E04A909784018401C002829D473
:20314000FFE7002103A8405E04A909784018401C07281FDCFFE70E9804A9097807AA13781D
:203160004B4305AA12789B18C35C002402A8055F0820401BC34003A8005F4018C0010D4985
:20318000401809A9095F891841188022885C18438854FFE7FFE7FFE70598401C05A9087035
:2031A00062E7FFE70498401C04A908704CE70AB0B0BDC0460000202080B584B002A9087097
:2031C0006448807C0978884203D1FFE700200390BDE002A80078002853D0FFE75D49486849
:2031E000007809680979012201AB04F09BFE002804D0FFE70020C0430390A8E001AB1878AC
:20320000DF210840187053494868007809680979012204F0A5FE002804D0FFE70020C04368
:20322000039094E0032005F0CBFB01A90220087048482221405C002806D0FFE701988021D8
:20324000084301A90870FFE742482321405C002806D0FFE701983021084301A90870FFE790
:203260003C49486800780968097D012201AB04F077FE002804D0FFE70020C043039066E094
:203280005FE034494868007809680979012201AB04F048FE002804D0FFE70020C0430390B6
:2032A00055E02C48807AC007002806D0FFE701982021084301A9087005E001A90878DF2269
:2032C00010400870FFE723494868007809680979012201AB04F044FE002804D0FFE70020B2
:2032E000C043039033E0032005F06AFB19482221405C002804D0FFE701A98020087003E0E1
:2033000001A900200870FFE712482321405C002806D0FFE701983021084301A90870FFE72A
:203320000C49486800780968097D012201AB04F017FE002804D0FFE70020C043039006E0C3
:20334000FFE702980349887400200390FFE7039804B080BDE0062020FCB40124E4076340F7
:2033600002E0FCB40124E40708B41D03ED08D60D354356025F007F0D06D12C00344300D0F2
:20338000AEE001B0FCBC7047A408254307242402FF34A74205D10020190D090501B0FCBC6B
:2033A0007047002B03D50024A61BAC4125000B03DB08C20D134342024800400D07D11C0079
:2033C000144300D08CE00EBC1000F0BC704701246407234307242402FF34A04205D10020CB
:2033E000090D090501B0FCBC7047002903D50024A21A9C412300C11B08D51C002B00250083
:203400001400320026000024611A3800362925D502B4393949420C00203C03D22F008F4022
:20342000374301E03700A740002F01D040210E4302BC20290BD500290ED04C42203420B4BD
:20344000A5402C0020BC0D41CE40361904E000292E000D4120390E4192196B411C001443D9
:203460003ED00024002B04D5012400218A1A99410B00401E52005B41FBD501218902150069
:203480000D400CD0521800277B4101D3401C0BE00721C90115000D4001D189008A430721F7
:2034A00009028A4352005B41801C19DD07210902FF31884209D30EBC0020C90F0902FF31AE
:2034C000C900C91D0905F0BC7047190B00050143E40721431805120B104301B0FCBC704763
:2034E0000021002001B0FCBC70477047F0B585B01E46054602920390504B514F04963E40B1
:20350000501E1446844134439C4207D80F40681E2C4684413C434948844208D90398029AF0
:20352000049BFFF71EFF0C46214605B0F0BD4548049B181810431AD00C46C90FD80F4000D4
:20354000019141183D4316D032431CD03B48864217D187421DD1424C3C48C0467944097978
:2035600049008F4401023B60DEE7414CDCE70398FEF76CF9D7E702290398D5D3032918D047
:2035800015E0874218D10120C00704402E48241810E000242046C0467944097949008F44CB
:2035A00001020608C0E700200121CC07BCE72A4C00E02A4C2548B7E7B81B00153C2803DD98
:2035C000214C2248019918E0002B09D500253B22D243904204DA28462C460EE0234C23E0F2
:2035E00003980D462146029A01F06AF80122D2079143FEF72BF90C462946002994D0022925
:2036000005D0012912D10121C9074C408CE7104A104B2146FFF7A5FE02460B460B480E49DF
:20362000FFF79AFE7FE70F4C0F487DE7084A094B2146FFF796FE054A084B72E70000F07F7F
:20364000FFFFFF7F000010C0FB21F93F182D4454075C143326A6A1BCFB210940FB2109C0D0
:20366000FB21E93F7CD902C0D221337F7CD90240FB21E9BFB0B588B006AB188003AC6C20CE
:20368000A0705248208002A82C2181705049018001AA762191704F4911806A46662191703A
:2036A0004D4911801A8803210A40A55C05AA1570069DED06AD0F655D5570069D2D06AD0F33
:2036C000645D94701B880B40C45C04AB1C70069CE406A40F045D5C70069C2406A40F005D94
:2036E00098703E4802F0B2FA002804D0FFE70020C043079066E03A48032104AA02F0A6FAD6
:20370000002804D0FFE70020C04307905AE0019805A9088001A8807888706846807804A918
:2037200088700098088006A80088400700280AD5FFE705980121084305AA107004980843E7
:2037400004A90870FFE706A80088800600280AD5FFE705A9487801221043487004A94878AC
:2037600010434870FFE706A80088C00500280AD5FFE705A9887801221043887004A98878A7
:2037800010438870FFE711208001032105AA02F05DFA002804D0FFE70020C043079011E09D
:2037A0001048032104AA02F051FA002804D0FFE70020C043079005E006980B490881002086
:2037C0000790FFE7079808B0B0BDC0464CCD00000CC9000036560000264600002604000092
:2037E0002A040000310400004807202080B594B01390129111A90220087057482421405C44
:20380000002807D0FFE7002002F06EF969460120087003E0694600200870FFE703A803F054
:203820003DFC06A803F068F901A802F0FFFF02A804F0E2FC4848807A04A9087005A805F0E7
:2038400069FA00200890FFE7089801280EDCFFE7139812990022FDF7F5FB002801D1FFE792
:2038600004E0FFE70898401C0890EDE70898022803D1FFE7002007903EE000200890FFE71F
:20388000089801280EDCFFE70EA80BA90122FDF7D9FB002801D1FFE704E0FFE70898401C94
:2038A0000890EDE70898022803D1FFE70020079022E012980BA901F0AFFC0AA9087013988F
:2038C0000EA900F097FB014609A80170002107910078002805D1FFE707980121084307908E
:2038E000FFE70AA80078002805D1FFE70798022108430790FFE7FFE71749FF2008724872B1
:20390000C872164ACA81887208740120087303A8008801F06BFF06A8007801F02DFB01A83A
:20392000008801F095FE02A8008801F0C9F904A8007800F0F7FB05A8007802F01BF86846B8
:203940000078002804D0FFE7012002F0CDF8FFE7079814B080BDC046E0062020FFFF000085
:20396000F0B585B00D4604465448014081420CD12046294622462B4601F08CFA22462B4655
:20398000FFF7EFFC04460D4693E04D4B002D75DD012004900105280D06D10020002D05D135
:2039A0001538E50A6405F9E72E460DE000220D4202D16D00521CFAE7801A401C2026B71A14
:2039C0002646FE402E4394403E4A8218481E304008430092D10703D0E10F4000401864008C
:2039E000E10F4000461800250498410501956400002911D04A19B71A304600DB3846B24237
:203A000000DC5518B24202DC019A521801924000E20F86184908EAE75F1C00221346002FDD
:203A200023D0D019AE4216DD039300230028049A00D41A46C11902910029049900DA1946A8
:203A4000761B844200D2761E039B0A40AD18241ADB19029A03E002D18442E5D23546E00F91
:203A600071000E1864007F08D9E7344313D0581C019A12D001201840C31810E028461840AF
:203A8000204316D0002D83D505F050FB212101600E4D00240DE0019A01E0521C002350109C
:203AA0005908D20754180099490809050818064945182046294605B0F0BDC0460000F07FF0
:203AC000FFFFFF7F01FCFFFF0000E03F0000F87F80B584B003A90020087002AB0193187063
:203AE00068207521012204F0FFF9494803F092FB01980078682804D0FFE7032004F0B8FD61
:203B0000FFE7FEF7B3FD002871D1FFE7782000F009FB002804D1FFE73D4803F07BFB03E08A
:203B200003A901200870FFE7782001F023FF002804D1FFE7374803F06DFB03E003A9012042
:203B40000870FFE7C82001F0BBF8002804D1FFE7314803F05FFB03E003A901200870FFE7C4
:203B600004F020FF002804D1FFE72C4803F052FB03E003A901200870FFE7294804F087F8A9
:203B8000FFF778FD002804D1FFE7264803F042FB03E003A901200870FFE7FF207430FDF774
:203BA000D1FF002804D1FFE71F4803F033FB03E003A901200870FFE7C82002F02DFA002893
:203BC00004D1FFE7194803F025FB03E003A901200870FFE702F062FC012001F085FF00289A
:203BE00004D1FFE7124803F015FBFFE703E0032004F03EFDFFE703A80078002806D0FFE7A5
:203C000003F01CFA032004F033FDFFE704B080BDD8A800006BA80000D4A7000050A7000078
:203C200058072020FAA7000046A80000B4A8000090A8000080B58AB0474805F0A3F901280A
:203C400000D086E003F06AF944480188491C01800088022867DBFFE740490020059008803D
:203C6000012002F0EDF804F003F93D4903914860022002F0E5F804F0FBF83A490491486002
:203C8000032002F0DDF804F0F3F8374901914860042002F0D5F804F0EBF801460398334A88
:203CA0000292516000F01CFF049800F019FF019800F016FF029800F013FF0198C06803F022
:203CC00067FF059A2A4B069300F0FAFC02F0A0FE014602980991C06803F05AFF059A069B2C
:203CE00000F0EEFC02F094FE014603980791C06803F04EFF059A069B00F0E2FC02F088FEFE
:203D0000014604980891C06803F042FF059A069B00F0D6FC02F07CFE0799089A0346099831
:203D200002F046FDFFE7134800881349884205DCFFE710490888401C0880FFE70D48008808
:203D40000D49884204D1FFE70C4901200870FFE7FFE70AB080BDC0460000874002052020C3
:203D6000000620203806202070062020A80620200000594004052020340800000D0520206B
:203D8000F0B587B01D4616463024059004700027104619463A463B4603F066F80028019440
:203DA00002D00120C00745400D9804900C9803903F4C304629463D4A234603F073F800286E
:203DC00009D00022304629463B4B00F079FC06460D467F1CEDE70598441C00223046294606
:203DE0000692134603F036F8002811D1002230462946304B03F038F8002809D00022304669
:203E000029462D4B01F046F806460D467F1EE4E70398C01903903046294603F0F7FC21464C
:203E200003F002FB02942418C019049908600398471C012F1ADB3046294603F0E7FC04F010
:203E4000B5FA02460B4630462946FFF785FA0022194B01F01FF806460D4603F0D7FC30306D
:203E6000611C20707F1E0C46E5D100E02146481E0278352A0DD3891E019C0A78521CD3B271
:203E80000A703A2B02D30C70491EF6E7059A914204D006990170029807B0F0BD069901704A
:203EA00004990868401C08600598F5E70000C0FFFFFFDF410000F03F0000244080B588B0DB
:203EC00006900699494802899207120F8958039100894007002804D5FFE7039840420390FB
:203EE000FFE706994148028952080C231A408958049100898006002804D5FFE704984042BC
:203F00000490FFE706993948028912090C231A40895805910089C005002804D5FFE705988F
:203F200040420590FFE70398C117314A00920023019304F057FB009A019B8900800F401861
:203F400003900498C11704F04DFB009A019B8900800F401804900598C11704F043FB8900B4
:203F6000800F4018059003A8C17802AA1170408850700398000A90700398D0703D2000014E
:203F8000042101F063FE002804D0FFE70020C043079028E003A8C17902AA1170C0885070EC
:203FA0000498000A90700498D070F5208000042101F04CFE002804D0FFE70020C0430790EE
:203FC00011E003A8C17A02AA1170408950700598000A90700598D0707B20C000042101F05F
:203FE00035FE0790FFE7079808B080BD4807202009E3CA0280B58AB00890079100200590E2
:204000004348406800780D21032204AB03F08AFF002803D0FFE70720099075E004A9087854
:204020001F221040087048781040487088781040887000200690FFE70698022861DCFFE7E0
:20404000089806998A00805807998958401AC1174840401A03F00CFF8F21C90502F0E6FADC
:204060000290069904A8405C00282DD0FFE72A480390FFE7069A04A9885C401E8854000660
:20408000002806D0FFE70398254902F07BF90390F0E70298039902F0C9FA204901F007FA1D
:2040A000019001980121C90788431A49896902F02BFF002807D0FFE70698012181400598A5
:2040C00008430590FFE717E002981249096902F0FDFE002808D1FFE702980E49496902F053
:2040E00013FF002807D0FFE7069801218140059808430590FFE7FFE7FFE70698401C069089
:204100009AE705980990FFE709980AB080BDC046E0062020ACA700000000C841000080BFA3
:2041200054E3853F80B584B0014602A8017000784006400F002804D0FFE701A90120087087
:204140000DE002A80078002804D0FFE701A90020087003E001A940200870FFE7FFE73C4976
:20416000486800780968897C012201AB03F0F8FE002806D0FFE7364900208872C0430390D6
:2041800063E001A90878BF221040314A10730020087002A800784006002806D4FFE7019802
:2041A0000421084301A90870FFE702A800788006002806D4FFE701980221084301A90870CE
:2041C000FFE702A80078C006002806D4FFE701980121084301A90870FFE702A800780007F2
:2041E000002806D4FFE701983821084301A90870FFE71749486800780968C97C012201AB85
:2042000003F0AEFE002806D0FFE7114900208872C043039019E002A80078002809D0FFE70F
:2042200002A80078082804D0FFE7002001F058FEFFE70298064988720020009008753220C3
:2042400004F0BEFB00980390FFE7039804B080BDE006202010B58EB00CAC20800B910AA845
:20426000028009A8038043482521405C002804D0FFE70020C0430D9079E00B98002804D180
:20428000FFE70120C0430D9071E00020019008A90880FFE708A800880CA90988884248DAEC
:2042A000FFE70CA8008808A90988401A112803DBFFE71020009006E00CA8008808A909881F
:2042C000401A0090FFE7009807A9088008A8008809880B9A121801F0B9FC002804D0FFE71E
:2042E0000220C0430D9042E008A8008807A9098803AA01F055FC002804D0FFE70320C0436A
:204300000D9034E00B9808A90988401807A90A8803A904F0FDF9002804D0FFE70420C043CE
:204320000D9024E0FFE707990898401808A90880B0E70AA8407802AB18700A9858700D492F
:20434000486800780968897E022203F009FE002804D0FFE70520C0430D9008E0054925227B
:20436000012088540998C88400200D90FFE70D980EB010BDE0062020F0B5A1B00493054682
:204380009068002801D5062090600290039200243D4F2846224606913B4602F079FD069945
:2043A0000028264614D10026384F284632463B4602F064FD069900280AD100222846059254
:2043C000134602F047FD069B00282E461F4622D12F4D04F08AFE02F047FD002809D0002268
:2043E000304639462B4B00F055FD06460F46641EEFE7284D04F079FE02F04AFD002807D0FF
:2044000004F073FE00F05CF906460F46641CF1E735463B46059407A802990091019008A848
:204420002A46FFF7ADFC0446079D022D0DD1059D6D1C204604F012FE2018401E00210170B5
:2044400028460125049E039F02E0049E039F0598397B324603F0ECF8BA682046294633464E
:2044600003F02FFF204604F0F9FD854203D138680007C20F00E0012220462946334602F075
:2044800051FC21B0F0BDC0460000F07F0000F0FF0000F03F0000244010B58CB00AAC207013
:2044A00009A8017008A802700793002106910078002804D1FFE70020C0430B9071E005A84F
:2044C00004F0C5FD09A801783748019004F05AFC0198364A20211160012104F037FBFFE7A9
:2044E000314804F0C3FC8006002801D4FFE7F7E70AA8017808A803782B48012203F0C2F8B0
:20450000FFE7294804F0D0F9002814D1FFE7264804F0B6FC03A90870069808A909788842C2
:2045200008D2FFE703980799069A88540698401C0690FFE7FFE7FFE71B48012104F04EFB00
:204540000028DED0FFE7FFE7174804F0ADF9002814D1FFE7144804F093FC02A9087006982D
:2045600008A90978884208D2FFE702980799069A88540698401C0690FFE7E5E70B49002013
:204580000860094803F0DEFB069808A90978884203D1FFE700200B9003E00120C0430B90E5
:2045A000FFE70B980CB010BD00200F4014320F4080B586B0014604A801700078292804DB6E
:2045C000FFE70020C043059075E004A8007800281DD1FFE70020029001F082FC029803AB5F
:2045E0001870072058703549486800780968897C022203F0B5FC002804D0FFE70020C0435B
:20460000059058E02D4900200875059053E0012001F066FC03A92020087004A800780128CD
:2046200007D1FFE703A900204870052001F010F820E004A80078052807DCFFE703A9012033
:204640004870052001F004F813E004A80078142807DCFFE703A9022048700A2000F0F8FFDD
:2046600006E003A903204870142000F0F1FFFFE7FFE7FFE703AB58788001C01D58700F490B
:20468000486800780968897C022203F069FC002804D0FFE70020C04305900CE0074A082001
:2046A00090720020019010730121117501F062F901980590FFE7059806B080BDE006202006
:2046C000FCB40C005C40E40FE40710B41D032D0B56006D415F007F0D73D001246405254360
:2046E00007242402FF34A74261D00B031B0B42005B414800400D64D0012464052343072422
:204700002402FF34A04252D0C01B002100273624AB4200D1B24204D37F414941921BAB4153
:2047200001E07F414941641E06D0002B01D1002A02D052005B41EBE7202C07D2162C0AD3F9
:204740003900A7402026361BF1400BE0203C3900A140002706E0A1402026361B3D00F54019
:204760002943A74001246405214202D17F004941401E00247F1C61410124A405214202D057
:20478000401CA14301E06408A14303242402FF34001916DD2419A04209D8CC0749080005F3
:2047A00001437808204310BC2143FCBC704702BC0020C90F0902FF21C900C91D0905FCBCDD
:2047C00070470021002001B0FCBC704780B58CB00B9001A8009001F0ABFF00980088C003FE
:2047E0000021039102900B99394802899207120F8958089100894007002804D5FFE7089837
:2048000040420890FFE70B993148028952080C231A408958099100898006002804D5FFE79C
:20482000099840420990FFE70B992948028912090C231A4089580A910089C005002804D5C7
:20484000FFE70A9840420A90FFE70898C117029A039B03F0C7FE8900800F401808900998BB
:20486000C117029A039B03F0BDFE8900800F401809900A98C117029A039B03F0B3FE89008E
:20488000800F40180A9008A8C17805AA1170418851700899090A91700899D170C1791171A1
:2048A000C18851710999090A91710999D171C17A1172408950720A98000A90720A98D07277
:2048C000A52080000C2101F0C1F90CB080BDC0464807202080B586B004AB18800391029253
:2048E0003D482421405C002804D1FFE70020C04305906EE03848807A002804D1FFE70020EC
:20490000C043059065E03449486800780968897A022201AB03F006FB002804D0FFE70020DB
:20492000C043059055E00198000201A94978411868460180008804A90988884206DAFFE7C6
:20494000029900200870C043059042E068460088214949684988490888421DDDFFE71E49E6
:20496000486800780968497C012201AB03F0DAFA002804D0FFE70020C043059029E001A8F7
:204980000078C006002806D5FFE7FDF75FFD0120C04305901DE0FFE70F4948680078096813
:2049A000C97A04AA1278039B03F0BCFA002804D0FFE70020C04305900BE06846008804A9CD
:2049C000098803F0C5F8401E0299087000200590FFE7059806B080BDE0062020F0B5394AAC
:2049E0008218394BC0183A4D4C790B79002C22D0466F202B02D00524E70100E0354F2E401E
:204A0000002B00D188273E434667846F2C403C438467446B2D4E34404463846B3440846365
:204A200000244465846554688F26F643344054609468344094600C688979202B09D00646A4
:204A40007036002B15D1641E4460C46E2C40882715E0641E4460C46E2C401E4E3443C46666
:204A6000046F2C40344304671B4D01246707064607E00527FF0164084460C46E2C403C43EE
:204A8000C46634682C403C433460C46A0F4D2C40C462046B2C4004630024C4640465C46F8B
:204AA0008F25ED432C40C46714682C401460194302680A4B1340BD220A40D118891C016099
:204AC000F0BDC04684180000041800008888FDFF24493E0001040000FFFFFFCF4000FFCFD5
:204AE00080B58AB009900999C8690862099908910868496800F0D6FC0899C861099840693F
:204B0000002102F0D9F9002809D1FFE709980790C169406A00F0CBFC0799486203E0099936
:204B200000204862FFE70999486A096B02F0ECF9002804D0FFE70999086B4862FFE70999FD
:204B4000486A496B02F0C2F9002804D0FFE70999486B4862FFE70999069108690190C8690F
:204B600003904869496A01F00DFC039902460198029201F007FC029900F099FC0699024638
:204B8000039805928A690492096A00F08BFC0146049801F0F7FB059900F089FC0699C860D0
:204BA0000999C868896A02F0AFF9002804D0FFE70999886AC860FFE70999C868C96A02F01B
:204BC00085F9002804D0FFE70999C86AC860FFE70AB080BDB0B588B00690364840680078CB
:204BE0000D21042205AB03F09DF9002803D0FFE7072007905BE005AA1078E0231840C008F4
:204C0000D178302421400909401804A9087050781840C008D4780C252C40A40800194870B9
:204C200090781840C008D27803231A408018887003A900200870FFE703A80078022833DC6C
:204C4000FFE703A8017804A8405C002807D1FFE7069903A800788200002088501FE0069942
:204C600003A80078820014488850FFE703A8027804A9885C401E8854000600280ED0FFE793
:204C80000698029003A909788900019140580B4901F078FB019A02998850E7E7FFE70398EF
:204CA000401C03A90870C7E700200790FFE7079808B0B0BDE00620207B14AE3E1D5A843F8A
:204CC00080B584B002A908803648807A002804D1FFE70020C043039061E032482421405C8B
:204CE000002804D0FFE70020C043039057E02D48007D002815D0FFE702A8008800280CD0CA
:204D0000FFE702A80088282807DCFFE702A80078FFF74EFC0020039041E00020FFF748FCD2
:204D2000FFE702A80088032804DCFFE702A9042008800BE002A800881B49884205DBFFE702
:204D40007D20C00002A90880FFE7FFE702A801887D20C00002F0FCFE401E01AB187011498F
:204D60004868007809684978012203F0F9F8002804D0FFE70020C043039010E001A8007829
:204D8000411C7D20C00002F0E3FE01460548C181C089400800F05CFC00200390FFE70398A3
:204DA00004B080BDE0062020E9030000B0B5364A80184A6842600A78222A56D8930001A4EB
:204DC000E3589F46614E00006B4E0000614E00006B4E00006B4E00006B4E00006B4E0000B8
:204DE0006B4E00006B4E00006B4E00006B4E00006B4E00006B4E00006B4E00006B4E0000EB
:204E00006B4E0000514E00006B4E0000514E00006B4E00006B4E00006B4E00006B4E0000FE
:204E20006B4E00006B4E00006B4E00006B4E00006B4E00006B4E00006B4E00006B4E0000AA
:204E40006B4E0000514E00006B4E0000514E0000036803242407A343012464071B1903E058
:204E6000036803242407A34303600B69C360CB68C46A064D2540064C1C402B19C362097AE2
:204E800011430160B0BDC046041800008888FDFF77770200FCB50C005C40E40FE40710B4D7
:204EA000DD02540D2543D6025F007F0D60D00124E407254307242402FF34A74250D0CB0285
:204EC000440D2343C2024800400D51D00124E407234307242402FF34A04241D0C01901B426
:204EE0001800290003F096F80F0001B41800310003F090F803000C001000310003F08AF8A3
:204F000006001000290003F085F805007618002202BC01BC55415141A41955415141802401
:204F2000A4005B195141FF18514100D564003F19514102D47F00494100E0401C0324240293
:204F4000FF34001B14DD2419A04209D80305F80A4C0520434900090B194310BC2143FCBDB2
:204F60000020FF21C900C91D090510BC2143FCBD0021002001B0FCBD80B584B002A9087014
:204F80003548807A002804D1FFE70020C04303905FE002A80078801E00900E2832D800989A
:204FA000810001A040588746E54F000005500000ED4F0000055000000550000005500000A6
:204FC000F54F0000055000000550000005500000055000000550000005500000055000003A
:204FE000FD4F000001A9002008700FE001A9082008700BE001A91020087007E001A91820E4
:20500000087003E00020C043039022E01248407A01A90978C908884203D1FFE70020039036
:2050200017E00D49486800780968C979012201AB02F096FF002804D0FFE70020C04303905A
:2050400007E001A80078C0080349487200200390FFE7039804B080BDE006202080B500F00A
:2050600049F9FDF7F1FE01F0F3FD02F0E3FE30480078002806D1FFE72E480078012801D199
:20508000FFE7FFE72A480078012812D1FFE72948007801280DD1FFE7022002F0B9FD26485A
:2050A0000078002804D0FFE7012002F0B1FDFFE7FFE71F48007802281FD1FFE71D4800784D
:2050C00001281AD1FFE7022002F0A2FD1A480078002804D0FFE7032002F09AFD03E00220B6
:2050E00002F096FDFFE714480078002804D0FFE7012002F08DFDFFE7FFE70D48007803282E
:2051000009D1FFE70B480078012804D1FFE7032002F07EFDFFE706480078042806D1FFE7FB
:2051200004480078012801D1FFE7FFE780BDC0460E0520200F052020CA042020F0B584B013
:205140003049314A0125AC0316682B0203939E4316600E68264205D10E68264202D10E6813
:205160002642F6D06C02467E9769AF432E40BD1995612025455DD6690327BE433D40751947
:20518000D561224D2E680727374005262E60466A33681362736853622F60C3695B065B0CA3
:2051A000D5697F263602B543EB18D361E8C8009707680197476802971B071B0B2D03ADB238
:2051C000ED1833071B0D007A009E35431D43019B1D43029B1D43054390690D4B03400D484E
:2051E0002840C01890611068039B184310600868204205D10868204202D108682042F6D0B8
:2052000004B0F0BD04020B4008010B40001340408D00F0FF72FF0F0080B58AB00990089158
:2052200000200090069003A8FFF7D4FC00980790FFE70798022856DCFFE7099807998A00F6
:20524000805808998958401AC1174840401A02F00FFE8F21C90501F0E9F9029007988100DE
:2052600003A84058002101F027FE00281ED1FFE7029807998A0003A9895801F0D7F91C4940
:2052800000F015F9019001980121C90788431749496A01F039FE002807D0FFE70798012148
:2052A0008140069808430690FFE717E002980F49C96901F00BFE002808D1FFE702980B49DE
:2052C000096A01F021FE002807D0FFE7079801218140069808430690FFE7FFE7FFE7079814
:2052E000401C0790A5E706980AB080BDACA70000000080BF80B584B002F016FF01462B48DE
:2053000001700078012815D1FFE7294803900068284900F0CCF80146039801600068264904
:2053200001F0E8FD002804D0FFE7214900200860FFE7FFE71D48007802280ED1FFE71C48C7
:205340000290006902F024FC1C4A1D4BFEF709F801F05EFB02990861FFE714480078032849
:205360000ED1FFE712480190006902F011FC134A144BFDF7F6FF01F04BFB01990861FFE750
:205380000A48007804280ED1FFE709480090006902F0FEFB094A0C4BFDF7E3FF01F038FB79
:2053A00000990861FFE704B080BDC0460B052020000620200000A0400000F0417B14AE47E3
:2053C000E17A843FE17A84BFE17A943FF8B515462A4E0A0D771C3A40294B9A4213D00C46BA
:2053E000002A18D10122D2079443044344D00022244BFFF74FFD0C4623498D4208DC234ABB
:20540000234B214636E002460B46FDF7AAFFF8BD220D3A40363A5119B1420ADD03F086FEE2
:20542000222101600120C00704401D4821180020F8BD012904DB174A144009052143F8BD44
:205440003522D24391420CDC03F070FE2221016012488542E6DA0120C0070440002021468C
:20546000F8BD0C4A144009051B225205891821430022094BFFF70EFDF8BDC046FE070000EF
:20548000FF07000000005043AF3CFFFF59F3F8C21F6EA501FFFF0F800000903C51C30000E4
:2054A0000000F07FFCB40127FF07794002E0FCB40127FF070C024D002D0E03D1002C52D16D
:2054C000FCBC70473C43FF2D50D0A408002900D56442020243001B0E04D1002A43D10800B7
:2054E000FCBC70473A43FF2B41D09208002800D552425E1B04D5170022003C0076422B00B0
:20550000192E06D527003741D2191C27F71B7F42BC40002A27D002D55242012700E0002712
:20552000013B5200FCD51500802635400FD01500202635402C43803208D215004026354042
:205540002C4304D101263602B24300E05B1C5200023308DDFF2B0BD2500ADB051843FF074E
:205560003843FCBC70470020FCBC70470800C70FFF07FF20C0053843FCBC704780B584B097
:2055800002A9087031482421405C002821D0FFE702A80078002804D0FFE701A90220087047
:2055A00003E001A900200870FFE72849486800780968C97B012201AB02F0D2FC002804D007
:2055C000FFE70020C04303903DE001981F49487436E01E48807A002804D1FFE70020C043D9
:2055E000039030E002A80078002808D0FFE71748407C002803D0FFE70020039023E002A8A4
:205600000078002804D0FFE701A90120087003E001A900200870FFE70C49486800780968F4
:20562000C97B012201AB02F09BFC002804D0FFE70020C043039006E0019804494874FFE7C8
:2056400000200390FFE7039804B080BDE006202080B584B002A908803048807A002804D1F4
:20566000FFE70020C043039054E002A80088BC2804DBFFE701A9012008702BE002A80088FF
:20568000622804DBFFE701A90220087021E002A800882A2804DBFFE701A90320087017E0F1
:2056A00002A80088142804DBFFE701A9042008700DE002A800880A2804DBFFE701A905208C
:2056C000087003E001A906200870FFE7FFE7FFE7FFE7FFE71148C07A01A90978884203D14D
:2056E000FFE70020039015E00C494868007809688978012201AB02F033FC002804D0FFE75B
:205700000020C043039005E001980449C87200200390FFE7039804B080BDC046E00620207D
:2057200010B586B005AC208004A8018003A8027002A80370049869460880FFE7002268462D
:20574000805E04A9895E02AA12788918884248DAFFE7059801A90880FFE7002201A8805ED0
:2057600005A9895E03AA12788918884233DAFFE7002101A8405E002827D4FFE7002101A8C4
:20578000405E7F2821DCFFE700216846405E00281BD4FFE700216846405E3F2815DCFFE7CC
:2057A00000226846815E480F081807240346A343C91A01238B40C008C1010B48411801A8B8
:2057C000825E885C98438854FFE7FFE70198401C01A90880C1E7FFE70098401C69460880A2
:2057E000ACE706B010BDC0460000202080B584B002A908802D48807A002804D1FFE700203F
:20580000C04303904EE002A800880090FA2812D0FFE700987D218900884210D0FFE7009831
:205820007D21C90088420ED0FFE700987D21090188420CD00FE001A9002008700FE001A9C3
:20584000082008700BE001A91020087007E001A91820087003E00020C043039022E0134834
:20586000007A01A90978C908884203D1FFE70020039017E00D494868007809688979012270
:2058800001AB02F06DFB002804D0FFE70020C043039007E001A80078C008044908720020B3
:2058A0000390FFE7039804B080BDC046E006202010B58CB00AAC207009A8017008A802702C
:2058C000079301780691079905910078002803D1FFE700200B9048E004A803F0B8FB09A8A8
:2058E00001782348019003F04DFA0198022103F02DF9FFE71E4803F0B9FA8006002801D4AF
:20590000FFE7F7E70AA8017808A80078431C1848002201F0B7FEFFE7059906A802881448D1
:2059200001F0ECFB029002990698401A0690029905984018059003A803F089FB0398049955
:205940000A31884206D3FFE701F078FB0020C0430B900AE0FFE70648022103F03FF90028CD
:20596000DAD0FFE700200B90FFE70B980CB010BD00200F4080B584B002A90870002000901F
:205980000878FE221040087028482421405C002803D0FFE70020039045E02448807A002807
:2059A00004D1FFE70020C04303903CE01F48017C01AA11700299827A11400174007C02A9C6
:2059C0000978884204D0FFE70020C043009002E000200090FFE702A80078002805D1FFE791
:2059E0001248007D002804D0FFE70120FFF7C6FD03E00020FFF7C2FDFFE702A8007800282C
:205A00000DD0FFE7FCF722FD002807D0FFE70198064908740020C043039004E0FFE7FFE702
:205A200000980390FFE7039804B080BDE0062020B0B58AB014460D4601460E9A08A8017047
:205A400007A90D7006AD2C7005AC237004AB1A70244A12681469007840000978C822009233
:205A600003AA0123A047002833D1FFE706A80578691CFF231A468A4005A90C78641BE41DAE
:205A8000E3401A4302AB1A700A780821891A049A8A4004A90A7002780720821A0878D040A5
:205AA000087002990398084003AA107004990398084310700B480068C46808A80078400071
:205AC00007A90978C82300930123A04709A9087003E009A901200870FFE709A800780AB0EB
:205AE000B0BDC0468007202080B588B006A908702A482422805C0978884203D1FFE700201F
:205B0000079047E006A8007800282AD0FFE723482521405C002804D1FFE70020C0430790AF
:205B200038E000200290FFF729FD0298FDF744FB1A480390C08CFFF7C3F80299039805ABDA
:205B400019704068007823210122049202F008FA0399049824228854FFF710FDFCF776FCE9
:205B600015E000200190FFF709FD0C480090017C05AB1970406800782321012202F0F0F987
:205B80000099019824228854FCF760FCFFE700200790FFE7079808B080BDC046E00620201F
:205BA00080B586B004AB188003A8018002920298002804D1FFE70020C043059040E02248B4
:205BC000807A002804D1FFE70120C043059037E004A8417801A8017004994170407803A9E7
:205BE00009884018184949684989884204DDFFE70220C043059023E0134948680078096895
:205C0000097E022201AB02F0ABF9002804D0FFE70320C043059013E00B494868007809681A
:205C2000497D03AA1278029B02F07CF9002804D0FFE70420C043059002E000200590FFE748
:205C4000059806B080BDC046E006202080B586B004AB188003A8018002920298002804D17F
:205C6000FFE70020C043059040E02248807A002804D1FFE70020C043059037E004A84178EB
:205C800001A8017004994170407803A909884018184949684989884204DDFFE70020C043B7
:205CA000059023E01349486800780968097E022201AB02F055F9002804D0FFE70020C043BB
:205CC000059013E00B49486800780968497D03AA1278029B02F044F9002804D0FFE7002084
:205CE000C043059002E000200590FFE7059806B080BDC046E006202080B588B007A908703E
:205D000000200690FFE7069807282EDCFFE707A800780699C840C007002806D0FFE7012090
:205D200041061C4802F0D6FE05E001204106194803F06AF8FFE70120059000F095FA059837
:205D4000C10304911348039002F0C4FE059800F08BFA0398049903F057F8059800F084FAB1
:205D6000FFE70698401C0690CDE701200090810302910848019002F0ADFE009800F074FABD
:205D80000198029903F040F807980349087008B080BDC04600000A4061072020F0B58B42E2
:205DA00000D1824204D90B0002000021002040E0002B00D1002A0CD10B00020000210020B2
:205DC000002B00D1002A01D0C943C04300F037F82FE01C0015000B0002000CB4002126004A
:205DE0002F00FF19764102D2491C4029F9D100201E001700FF19764102D2401C4028F9D1B3
:205E00000E1A21002800320002F0CEFC0C0005000CBC00200021A34200D1AA4201D3521B26
:205E2000A341404149416D08E7073D436408761EF1D5059F002F01D03A607B60F0BD70474D
:205E400084B0014602A801700078401E0090032834D80098810001A0405887466D5E000025
:205E6000815E0000955E0000A95E00001B49088801AA108000200880019803A9088021E0A4
:205E80001549088801AA108000200880019803A9088017E00F49088801AA108000200880A2
:205EA000019803A908800DE00949088801AA108000200880019803A9088003E003A90020E7
:205EC0000880FFE7002103A8405E04B07047C04600052020FE042020DE042020FC04202090
:205EE00080B584B002A9087023482322805C0978884203D1FFE7002003903AE002A8007896
:205F0000002804D0FFE701A93020087003E001A900200870FFE71848807C002806D0FFE7E2
:205F200001980221084301A90870FFE712482221405C002806D0FFE701988021084301A906
:205F40000870FFE70C49486800780968097D012201AB02F005F8002804D0FFE70020C043AC
:205F6000039006E0029804492322885400200390FFE7039804B080BDE006202080B501F02F
:205F80001FFCAE2002F054FAD52002F051FA802002F04EFAA82002F04BFA3F2002F048FA3A
:205FA000D32002F045FA002002F042FA402002F03FFAA12002F03CFAC82002F039FADA20F4
:205FC00002F036FA122002F033FA812002F030FACF2002F02DFAD92002F02AFAF12002F077
:205FE00027FADB2002F024FA302002F021FAA42002F01EFAA62002F01BFA8D2002F018FACC
:20600000142002F015FAAF2002F012FA01F088F901F046FC80BD704780B588B0014606A883
:2060200001801D4905911D4904911D4903910088C92804DBFFE70020C043079029E006A83F
:206040000188C82001F084FD411E02A8018040786A4610700298507012480221FFF7F6FD2B
:20606000002804D0FFE70020C043079011E00E480C2103AAFFF7EAFD002804D0FFE7002084
:20608000C043079005E006980849888100200790FFE7079808B080BDBBAFDFDFAAF1DFDFD7
:2060A000FEF2ABC416020000C10A00004807202082B00190019800214056012804DBFFE70E
:2060C0006946002008803AE0019800214056002804D5FFE76946042008802FE001980121F3
:2060E0004056012804DBFFE769460120088024E0019801214056002804D5FFE769460520B4
:20610000088019E0019802214056012804DBFFE76946022008800EE00198022140560028FD
:2061200004D5FFE769460620088003E0694607200880FFE7FFE7FFE7FFE7FFE7FFE76846F0
:20614000008802B07047000080B586B01F492048059002F0EFFB05981E49FEF73FFC0598D1
:206160000023029319461A4601F00AFE029B0598009319461A4602F085FD029A059811461F
:2061800002F0CAFB029A05987D214901039102F03FFF029B059801210491009119461A4622
:2061A00002F070FD0299049A059802F0B5FB0399049A059802F02CFF059802F089FE059861
:2061C000032102F08FFE06B080BDC04649A90000000009401CAA000080B586B01F492048E7
:2061E000059002F0A7FB05981E49FEF7F7FB05980023029319461A4601F0C2FD029B05988D
:20620000009319461A4602F03DFD029A0598114602F082FB029A05987D214901039102F05A
:20622000F7FE029B059801210491009119461A4602F028FD0299049A059802F06DFB039945
:20624000049A059802F0E4FE059802F041FE0598032102F047FE06B080BDC0462CAA00009A
:206260000000864024AA000080B586B0059005981E49884203D3FFE71D480590FFE7059982
:2062800050204843059000200090049002F0FCFE014600980391029001A90870FFE702F03F
:2062A000F3FE029002980399884204D9FFE701A901200870FFE701A80078002807D0FFE769
:2062C00003980299401A0B494018049004E003980299401A0490FFE704980599884201D328
:2062E000FFE700E0DBE706B080BDC0463433030033330300FFFFFF0080B588B01A480190ED
:2063000002F0DCFB1948029002F0D8FB1848039002F0ACFC1748049002F0A8FC16480590F3
:2063200002F0A4FC1548069002F070FC1448079002F0D8FC019802F091FB029802F08EFB95
:20634000039802F087FC049802F084FC059802F081FC069802F036FC079802F0ABFC1020E9
:2063600002F09EFE08B080BD00000A4000200A4000008640000009400000874000200F40A1
:2063800000801040FCB40127FF0706004E4001D4002600E03E00020243001B0E30D03A43B5
:2063A000FF2B30D00C024D002D0E29D03C43FF2D29D05B194240504042404C4061404C40BF
:2063C00000B501F027FE20BCAE464240504042404C4061404C4025001400002C01D4640037
:2063E000013B803401D3013364087E3B08DDFF2B09D2BC43200ADB0518433043FCBC704750
:206400000020FCBC7047FF20C0053043FCBC704780B586B005900598C078C021084003A97D
:2064200008700598C0783F21084004A9087005984078C007002819D0FFE704A80178C90839
:2064400002AA1170007807210840401C01A9087011480068002808D0FFE70F48026802A897
:20646000007801A909789047FFE7FFE705984078000700280DD5FFE707484068002807D094
:20648000FFE70548416803A8007880098847FFE7FFE7002006B080BD4807202080B58AB0C8
:2064A00006A803A9FDF7A2F909900998072836D1FFE702A800F094FB069801F0D9FC029975
:2064C000FFF760FF01F0C4FD0690079801F0D0FC0299FFF757FF01F0BBFD0790089801F00B
:2064E000C7FC0299FFF74EFF01F0B2FD089006A8FDF7E4FC01A8009000F01AF900980188E4
:20650000039A514303910188049A51430491008805994843059003A8FEF758F9FFE70AB08F
:2065200080BD000010B588B00C46014607A8017006A90C7005AC227004AA02921370194AD2
:2065400012681469007840000978C822009203AA0123A04702980078002809D0FFE703A833
:20656000007805A90A78012191400843019008E003A8007805A90A7801219140884301901A
:20658000FFE7019803AA107006480068C46807A80078400006A90978C82300930123A0474D
:2065A00008B010BD8007202070B582B0024601A80270009100214056002816D4FFE7002471
:2065C00001A908570322D3431840174A805809578C07E50EFF24AC40A043009CA401E4B237
:2065E000AC402043194088501AE001A908780F24204008380322D34318400A4A8058002540
:2066000049578D07EE0EFF25B540A843009DAD01EDB2B54028432140083919408850FFE743
:2066200002B070BD1CED00E000E400E0FCB40127FF0706004E40F60FF607020243001B0EEA
:206640002DD03A43FF2B2DD00C024D002D0E26D03C43FF2D26D05B1B0020202164085208CF
:20666000A2424041A24200D3121B013904D0002A01D05200F4D18840384201D14000013B21
:20668000803001D3013300E040007F3307DDFF2B08D2400ADB0518433043FCBC7047002001
:2066A000FCBC7047FF20C0053043FCBC7047000010B586B005AC208004A8018003A802700F
:2066C00002A803700078082812D1FFE7002205A8805E04A9895E03AA12781201124BD2185A
:2066E000124BD218009208221023FCF78DFC17E002A80078062812D1FFE7002205A8805E2B
:2067000004A9895E03AA1478062213466343054C1B19C03B00930823FCF776FCFFE7FFE716
:2067200006B010BD86A30000969D000000FEFFFF83B001901C48407A009003281FD8009852
:20674000810001A04058874659670000636700006B670000756700000199012080030880B4
:2067600011E00199114808800DE0019901200003088008E001990120C002088003E000208A
:20678000C04302900CE00848C07C002805D0FFE70199088840080880FFE700200290FFE791
:2067A000029803B07047C046E00620209C1F000010B588B00790069105920493079A0020D4
:2067C00001900121039100F013FB019A0798164902910840114600F0C9F9069A0320022111
:2067E00000F006FB0199029B039A0698184000F0BDF9059A0520042100F0FAFA019A029B33
:2068000003990598184000F0B1F9049A0620072100F0EEFA0299039A04980840114600F026
:20682000A5F908B010BDC046FFFFFF7F82B001901C48C07A009007282DD80098810001A0D4
:206840004058874695680000656800006D680000756800007D680000856800008D68000090
:20686000956800000199BC20088018E001996220088014E001992A20088010E00199142063
:2068800008800CE001990A20088008E001990520088004E0FFE7019900200880FFE70020F7
:2068A00002B07047E0062020F8B5451C00780023082B32D02F78C2070CD16A780F241440B5
:2068C000E41C122C0BD102242E57F4B2002E08D4EE1C0EE06D1C4A1C0F7011461AE0AE1CC2
:2068E00008E02E1DED7800957F252C40009DED012C1912343D0112095219094DAA420ED061
:20690000D243002C05D08D5C4F1C0D70641E3946F7E7354640085B1CCAE72846C5E7F8BDF7
:20692000FF0F000080B582B0012001031A4802F0FDF9002804D1FFE701A90120087027E046
